{
  "_format": "hh-sol-artifact-1",
  "contractName": "ASE_Proxy",
  "sourceName": "contracts/ASEProxy.sol",
  "abi": [
    {
      "inputs": [
        {
          "internalType": "address",
          "name": "_implContract",
          "type": "address"
        },
        {
          "internalType": "address",
          "name": "address1",
          "type": "address"
        },
        {
          "internalType": "address",
          "name": "address2",
          "type": "address"
        }
      ],
      "stateMutability": "nonpayable",
      "type": "constructor"
    },
    {
      "inputs": [],
      "name": "NotOwner",
      "type": "error"
    },
    {
      "anonymous": false,
      "inputs": [
        {
          "indexed": true,
          "internalType": "address",
          "name": "marketowner",
          "type": "address"
        },
        {
          "indexed": true,
          "internalType": "address",
          "name": "newImplAddrs",
          "type": "address"
        }
      ],
      "name": "ImplUpgrade",
      "type": "event"
    },
    {
      "anonymous": false,
      "inputs": [
        {
          "indexed": true,
          "internalType": "address",
          "name": "buyer",
          "type": "address"
        },
        {
          "indexed": true,
          "internalType": "address",
          "name": "nftAddress",
          "type": "address"
        },
        {
          "indexed": true,
          "internalType": "uint256",
          "name": "tokenId",
          "type": "uint256"
        },
        {
          "indexed": false,
          "internalType": "uint256",
          "name": "price",
          "type": "uint256"
        }
      ],
      "name": "ItemBought",
      "type": "event"
    },
    {
      "anonymous": false,
      "inputs": [
        {
          "indexed": true,
          "internalType": "address",
          "name": "seller",
          "type": "address"
        },
        {
          "indexed": true,
          "internalType": "address",
          "name": "nftAddress",
          "type": "address"
        },
        {
          "indexed": true,
          "internalType": "uint256",
          "name": "tokenId",
          "type": "uint256"
        }
      ],
      "name": "ItemCanceled",
      "type": "event"
    },
    {
      "anonymous": false,
      "inputs": [
        {
          "indexed": true,
          "internalType": "address",
          "name": "seller",
          "type": "address"
        },
        {
          "indexed": true,
          "internalType": "address",
          "name": "nftAddress",
          "type": "address"
        },
        {
          "indexed": true,
          "internalType": "uint256",
          "name": "tokenId",
          "type": "uint256"
        },
        {
          "indexed": false,
          "internalType": "uint256",
          "name": "price",
          "type": "uint256"
        }
      ],
      "name": "ItemListed",
      "type": "event"
    },
    {
      "inputs": [
        {
          "internalType": "address",
          "name": "nftAddress",
          "type": "address"
        },
        {
          "internalType": "uint256",
          "name": "tokenId",
          "type": "uint256"
        }
      ],
      "name": "buyItem",
      "outputs": [
        {
          "internalType": "string",
          "name": "",
          "type": "string"
        }
      ],
      "stateMutability": "payable",
      "type": "function"
    },
    {
      "inputs": [],
      "name": "calculateVotingResult",
      "outputs": [
        {
          "internalType": "uint256",
          "name": "",
          "type": "uint256"
        }
      ],
      "stateMutability": "view",
      "type": "function"
    },
    {
      "inputs": [
        {
          "internalType": "address",
          "name": "nftAddress",
          "type": "address"
        },
        {
          "internalType": "uint256",
          "name": "tokenId",
          "type": "uint256"
        }
      ],
      "name": "cancelListing",
      "outputs": [
        {
          "internalType": "string",
          "name": "",
          "type": "string"
        }
      ],
      "stateMutability": "nonpayable",
      "type": "function"
    },
    {
      "inputs": [
        {
          "internalType": "address",
          "name": "cAddress",
          "type": "address"
        }
      ],
      "name": "createVotingProposal",
      "outputs": [],
      "stateMutability": "nonpayable",
      "type": "function"
    },
    {
      "inputs": [
        {
          "internalType": "address",
          "name": "nftAddress",
          "type": "address"
        },
        {
          "internalType": "uint256",
          "name": "tokenId",
          "type": "uint256"
        }
      ],
      "name": "getASListing",
      "outputs": [
        {
          "components": [
            {
              "internalType": "address",
              "name": "owner",
              "type": "address"
            },
            {
              "internalType": "address",
              "name": "nftContract",
              "type": "address"
            },
            {
              "internalType": "uint256",
              "name": "tokenId",
              "type": "uint256"
            },
            {
              "internalType": "uint256",
              "name": "price",
              "type": "uint256"
            }
          ],
          "internalType": "struct ASE_Proxy.Listing_sell",
          "name": "",
          "type": "tuple"
        }
      ],
      "stateMutability": "view",
      "type": "function"
    },
    {
      "inputs": [],
      "name": "getImplAddrs",
      "outputs": [
        {
          "internalType": "address",
          "name": "",
          "type": "address"
        }
      ],
      "stateMutability": "view",
      "type": "function"
    },
    {
      "inputs": [],
      "name": "getProceeds",
      "outputs": [
        {
          "internalType": "uint256",
          "name": "",
          "type": "uint256"
        }
      ],
      "stateMutability": "view",
      "type": "function"
    },
    {
      "inputs": [
        {
          "internalType": "address",
          "name": "nftAddress",
          "type": "address"
        }
      ],
      "name": "getSListedAdddressTokens",
      "outputs": [
        {
          "internalType": "uint256[]",
          "name": "",
          "type": "uint256[]"
        }
      ],
      "stateMutability": "view",
      "type": "function"
    },
    {
      "inputs": [],
      "name": "getSListedAdddresses",
      "outputs": [
        {
          "internalType": "address[]",
          "name": "",
          "type": "address[]"
        }
      ],
      "stateMutability": "view",
      "type": "function"
    },
    {
      "inputs": [
        {
          "internalType": "address",
          "name": "nftContract",
          "type": "address"
        }
      ],
      "name": "isNFT",
      "outputs": [
        {
          "internalType": "bool",
          "name": "",
          "type": "bool"
        }
      ],
      "stateMutability": "view",
      "type": "function"
    },
    {
      "inputs": [
        {
          "internalType": "address",
          "name": "nftAddress",
          "type": "address"
        },
        {
          "internalType": "uint256",
          "name": "tokenId",
          "type": "uint256"
        },
        {
          "internalType": "uint256",
          "name": "price",
          "type": "uint256"
        }
      ],
      "name": "listItem",
      "outputs": [
        {
          "internalType": "string",
          "name": "",
          "type": "string"
        }
      ],
      "stateMutability": "nonpayable",
      "type": "function"
    },
    {
      "inputs": [],
      "name": "updateImplContract",
      "outputs": [],
      "stateMutability": "nonpayable",
      "type": "function"
    },
    {
      "inputs": [
        {
          "internalType": "address",
          "name": "nftAddress",
          "type": "address"
        },
        {
          "internalType": "uint256",
          "name": "tokenId",
          "type": "uint256"
        },
        {
          "internalType": "uint256",
          "name": "newPrice",
          "type": "uint256"
        }
      ],
      "name": "updateListing",
      "outputs": [
        {
          "internalType": "string",
          "name": "",
          "type": "string"
        }
      ],
      "stateMutability": "nonpayable",
      "type": "function"
    },
    {
      "inputs": [
        {
          "internalType": "bool",
          "name": "supportChanges",
          "type": "bool"
        }
      ],
      "name": "voteOnProposal",
      "outputs": [],
      "stateMutability": "nonpayable",
      "type": "function"
    },
    {
      "inputs": [],
      "name": "withdrawProceeds",
      "outputs": [
        {
          "internalType": "string",
          "name": "",
          "type": "string"
        }
      ],
      "stateMutability": "nonpayable",
      "type": "function"
    }
  ],
  "bytecode": "0x6080604052662386f26fc100006002553480156200001c57600080fd5b506040516200243b3803806200243b8339818101604052810190620000429190620001c1565b600160008190555033600160006101000a81548173ffffffffffffffffffffffffffffffffffffffff021916908373ffffffffffffffffffffffffffffffffffffffff16021790555082600960006101000a81548173ffffffffffffffffffffffffffffffffffffffff021916908373ffffffffffffffffffffffffffffffffffffffff16021790555081600d60006101000a81548173ffffffffffffffffffffffffffffffffffffffff021916908373ffffffffffffffffffffffffffffffffffffffff16021790555080600e60006101000a81548173ffffffffffffffffffffffffffffffffffffffff021916908373ffffffffffffffffffffffffffffffffffffffff1602179055505050506200021d565b600080fd5b600073ffffffffffffffffffffffffffffffffffffffff82169050919050565b600062000189826200015c565b9050919050565b6200019b816200017c565b8114620001a757600080fd5b50565b600081519050620001bb8162000190565b92915050565b600080600060608486031215620001dd57620001dc62000157565b5b6000620001ed86828701620001aa565b93505060206200020086828701620001aa565b92505060406200021386828701620001aa565b9150509250925092565b61220e806200022d6000396000f3fe6080604052600436106100e85760003560e01c8063b31b85c91161008a578063e3ccb80911610059578063e3ccb80914610325578063f5fa4d471461034e578063f772adf114610365578063f8e97ef9146103a2576100e8565b8063b31b85c914610243578063be58725114610280578063c53dd022146102bd578063cc6b11b1146102e8576100e8565b806389bfd38f116100c657806389bfd38f1461016e5780639038e693146101ab5780639f37092a146101d6578063b2ddee0614610206576100e8565b8063341a0b8a146100ed5780636ae012c81461011857806383bd958714610143575b600080fd5b3480156100f957600080fd5b506101026103cb565b60405161010f919061170d565b60405180910390f35b34801561012457600080fd5b5061012d6103e2565b60405161013a919061173e565b60405180910390f35b34801561014f57600080fd5b5061015861040c565b6040516101659190611772565b60405180910390f35b34801561017a57600080fd5b50610195600480360381019061019091906117f9565b610453565b6040516101a291906118dc565b60405180910390f35b3480156101b757600080fd5b506101c06105d4565b6040516101cd91906118dc565b60405180910390f35b6101f060048036038101906101eb91906118fe565b610742565b6040516101fd91906118dc565b60405180910390f35b34801561021257600080fd5b5061022d600480360381019061022891906118fe565b6108c0565b60405161023a91906118dc565b60405180910390f35b34801561024f57600080fd5b5061026a6004803603810190610265919061193e565b610a3e565b6040516102779190611986565b60405180910390f35b34801561028c57600080fd5b506102a760048036038101906102a2919061193e565b610af4565b6040516102b49190611a5f565b60405180910390f35b3480156102c957600080fd5b506102d2610b4a565b6040516102df9190611772565b60405180910390f35b3480156102f457600080fd5b5061030f600480360381019061030a91906118fe565b610bd2565b60405161031c9190611ad6565b60405180910390f35b34801561033157600080fd5b5061034c60048036038101906103479190611b1d565b610cfd565b005b34801561035a57600080fd5b50610363611012565b005b34801561037157600080fd5b5061038c600480360381019061038791906117f9565b61126b565b60405161039991906118dc565b60405180910390f35b3480156103ae57600080fd5b506103c960048036038101906103c4919061193e565b6113ec565b005b606060006103d960066114d2565b90508091505090565b6000600960009054906101000a900473ffffffffffffffffffffffffffffffffffffffff16905090565b6000600460003373ffffffffffffffffffffffffffffffffffffffff1673ffffffffffffffffffffffffffffffffffffffff16815260200190815260200160002054905090565b6060600080600960009054906101000a900473ffffffffffffffffffffffffffffffffffffffff1673ffffffffffffffffffffffffffffffffffffffff168686866040516024016104a693929190611b4a565b6040516020818303038152906040527f89bfd38f000000000000000000000000000000000000000000000000000000007bffffffffffffffffffffffffffffffffffffffffffffffffffffffff19166020820180517bffffffffffffffffffffffffffffffffffffffffffffffffffffffff83818316178352505050506040516105309190611bc8565b600060405180830381855af49150503d806000811461056b576040519150601f19603f3d011682016040523d82523d6000602084013e610570565b606091505b5091509150816105b5576040517f08c379a00000000000000000000000000000000000000000000000000000000081526004016105ac90611c2b565b60405180910390fd5b808060200190518101906105c99190611d71565b925050509392505050565b6060600080600960009054906101000a900473ffffffffffffffffffffffffffffffffffffffff1673ffffffffffffffffffffffffffffffffffffffff166040516024016040516020818303038152906040527f9038e693000000000000000000000000000000000000000000000000000000007bffffffffffffffffffffffffffffffffffffffffffffffffffffffff19166020820180517bffffffffffffffffffffffffffffffffffffffffffffffffffffffff83818316178352505050506040516106a29190611bc8565b600060405180830381855af49150503d80600081146106dd576040519150601f19603f3d011682016040523d82523d6000602084013e6106e2565b606091505b509150915081610727576040517f08c379a000000000000000000000000000000000000000000000000000000000815260040161071e90611c2b565b60405180910390fd5b8080602001905181019061073b9190611d71565b9250505090565b6060600080600960009054906101000a900473ffffffffffffffffffffffffffffffffffffffff1673ffffffffffffffffffffffffffffffffffffffff168585604051602401610793929190611dba565b6040516020818303038152906040527f9f37092a000000000000000000000000000000000000000000000000000000007bffffffffffffffffffffffffffffffffffffffffffffffffffffffff19166020820180517bffffffffffffffffffffffffffffffffffffffffffffffffffffffff838183161783525050505060405161081d9190611bc8565b600060405180830381855af49150503d8060008114610858576040519150601f19603f3d011682016040523d82523d6000602084013e61085d565b606091505b5091509150816108a2576040517f08c379a000000000000000000000000000000000000000000000000000000000815260040161089990611c2b565b60405180910390fd5b808060200190518101906108b69190611d71565b9250505092915050565b6060600080600960009054906101000a900473ffffffffffffffffffffffffffffffffffffffff1673ffffffffffffffffffffffffffffffffffffffff168585604051602401610911929190611dba565b6040516020818303038152906040527fb2ddee06000000000000000000000000000000000000000000000000000000007bffffffffffffffffffffffffffffffffffffffffffffffffffffffff19166020820180517bffffffffffffffffffffffffffffffffffffffffffffffffffffffff838183161783525050505060405161099b9190611bc8565b600060405180830381855af49150503d80600081146109d6576040519150601f19603f3d011682016040523d82523d6000602084013e6109db565b606091505b509150915081610a20576040517f08c379a0000000000000000000000000000000000000000000000000000000008152600401610a1790611c2b565b60405180910390fd5b80806020019051810190610a349190611d71565b9250505092915050565b600080600090508273ffffffffffffffffffffffffffffffffffffffff166301ffc9a77f80ac58cd000000000000000000000000000000000000000000000000000000006040518263ffffffff1660e01b8152600401610a9e9190611e1e565b602060405180830381865afa925050508015610ad857506040513d601f19601f82011682018060405250810190610ad59190611e4e565b60015b610ae6576000915050610aef565b80915050809150505b919050565b60606000610b3f600560008573ffffffffffffffffffffffffffffffffffffffff1673ffffffffffffffffffffffffffffffffffffffff1681526020019081526020016000206114f3565b905080915050919050565b600080600a60020154600a60010154610b639190611eaa565b905060008103610b77576000915050610bcf565b6001600a60010154148015610b9157506001600a60020154145b15610ba0576000915050610bcf565b6002600a60010154148015610bba57506002600a60020154145b15610bc9576002915050610bcf565b60019150505b90565b610bda6115c9565b600360008473ffffffffffffffffffffffffffffffffffffffff1673ffffffffffffffffffffffffffffffffffffffff16815260200190815260200160002060008381526020019081526020016000206040518060800160405290816000820160009054906101000a900473ffffffffffffffffffffffffffffffffffffffff1673ffffffffffffffffffffffffffffffffffffffff1673ffffffffffffffffffffffffffffffffffffffff1681526020016001820160009054906101000a900473ffffffffffffffffffffffffffffffffffffffff1673ffffffffffffffffffffffffffffffffffffffff1673ffffffffffffffffffffffffffffffffffffffff16815260200160028201548152602001600382015481525050905092915050565b600d60009054906101000a900473ffffffffffffffffffffffffffffffffffffffff1673ffffffffffffffffffffffffffffffffffffffff163373ffffffffffffffffffffffffffffffffffffffff1603610d9b576000600a6001015414610d9a576040517f08c379a0000000000000000000000000000000000000000000000000000000008152600401610d9190611f50565b60405180910390fd5b5b600e60009054906101000a900473ffffffffffffffffffffffffffffffffffffffff1673ffffffffffffffffffffffffffffffffffffffff163373ffffffffffffffffffffffffffffffffffffffff1603610e39576000600a6002015414610e38576040517f08c379a0000000000000000000000000000000000000000000000000000000008152600401610e2f90611f50565b60405180910390fd5b5b600d60009054906101000a900473ffffffffffffffffffffffffffffffffffffffff1673ffffffffffffffffffffffffffffffffffffffff163373ffffffffffffffffffffffffffffffffffffffff161480610ee25750600e60009054906101000a900473ffffffffffffffffffffffffffffffffffffffff1673ffffffffffffffffffffffffffffffffffffffff163373ffffffffffffffffffffffffffffffffffffffff16145b610f21576040517f08c379a0000000000000000000000000000000000000000000000000000000008152600401610f1890611fbc565b60405180910390fd5b8015610f9d57600d60009054906101000a900473ffffffffffffffffffffffffffffffffffffffff1673ffffffffffffffffffffffffffffffffffffffff163373ffffffffffffffffffffffffffffffffffffffff1603610f8c576002600a60010181905550610f98565b6002600a600201819055505b61100f565b600d60009054906101000a900473ffffffffffffffffffffffffffffffffffffffff1673ffffffffffffffffffffffffffffffffffffffff163373ffffffffffffffffffffffffffffffffffffffff1603611002576001600a6001018190555061100e565b6001600a600201819055505b5b50565b61101a611514565b600160009054906101000a900473ffffffffffffffffffffffffffffffffffffffff1673ffffffffffffffffffffffffffffffffffffffff163373ffffffffffffffffffffffffffffffffffffffff16146110aa576040517f08c379a00000000000000000000000000000000000000000000000000000000081526004016110a19061204e565b60405180910390fd5b6000600a600101541415806110c557506000600a6002015414155b611104576040517f08c379a00000000000000000000000000000000000000000000000000000000081526004016110fb906120ba565b60405180910390fd5b6002600a6001015414801561111e57506002600a60020154145b61115d576040517f08c379a00000000000000000000000000000000000000000000000000000000081526004016111549061214c565b60405180910390fd5b600a60000160009054906101000a900473ffffffffffffffffffffffffffffffffffffffff16600960006101000a81548173ffffffffffffffffffffffffffffffffffffffff021916908373ffffffffffffffffffffffffffffffffffffffff160217905550600960009054906101000a900473ffffffffffffffffffffffffffffffffffffffff1673ffffffffffffffffffffffffffffffffffffffff16600160009054906101000a900473ffffffffffffffffffffffffffffffffffffffff1673ffffffffffffffffffffffffffffffffffffffff167f1ed34c9a7b236ee6031785cd9ca32de930e1ae39020c1279886b687a307e7fcb60405160405180910390a3611269611563565b565b6060600080600960009054906101000a900473ffffffffffffffffffffffffffffffffffffffff1673ffffffffffffffffffffffffffffffffffffffff168686866040516024016112be93929190611b4a565b6040516020818303038152906040527ff772adf1000000000000000000000000000000000000000000000000000000007bffffffffffffffffffffffffffffffffffffffffffffffffffffffff19166020820180517bffffffffffffffffffffffffffffffffffffffffffffffffffffffff83818316178352505050506040516113489190611bc8565b600060405180830381855af49150503d8060008114611383576040519150601f19603f3d011682016040523d82523d6000602084013e611388565b606091505b5091509150816113cd576040517f08c379a00000000000000000000000000000000000000000000000000000000081526004016113c490611c2b565b60405180910390fd5b808060200190518101906113e19190611d71565b925050509392505050565b338073ffffffffffffffffffffffffffffffffffffffff16600160009054906101000a900473ffffffffffffffffffffffffffffffffffffffff1673ffffffffffffffffffffffffffffffffffffffff1614611474576040517f30cd747100000000000000000000000000000000000000000000000000000000815260040160405180910390fd5b81600a60000160006101000a81548173ffffffffffffffffffffffffffffffffffffffff021916908373ffffffffffffffffffffffffffffffffffffffff1602179055506000600a600101819055506000600a600201819055505050565b606060006114e28360000161156d565b905060608190508092505050919050565b606060006115038360000161156d565b905060608190508092505050919050565b600260005403611559576040517f08c379a0000000000000000000000000000000000000000000000000000000008152600401611550906121b8565b60405180910390fd5b6002600081905550565b6001600081905550565b6060816000018054806020026020016040519081016040528092919081815260200182805480156115bd57602002820191906000526020600020905b8154815260200190600101908083116115a9575b50505050509050919050565b6040518060800160405280600073ffffffffffffffffffffffffffffffffffffffff168152602001600073ffffffffffffffffffffffffffffffffffffffff16815260200160008152602001600081525090565b600081519050919050565b600082825260208201905092915050565b6000819050602082019050919050565b600073ffffffffffffffffffffffffffffffffffffffff82169050919050565b600061167482611649565b9050919050565b61168481611669565b82525050565b6000611696838361167b565b60208301905092915050565b6000602082019050919050565b60006116ba8261161d565b6116c48185611628565b93506116cf83611639565b8060005b838110156117005781516116e7888261168a565b97506116f2836116a2565b9250506001810190506116d3565b5085935050505092915050565b6000602082019050818103600083015261172781846116af565b905092915050565b61173881611669565b82525050565b6000602082019050611753600083018461172f565b92915050565b6000819050919050565b61176c81611759565b82525050565b60006020820190506117876000830184611763565b92915050565b6000604051905090565b600080fd5b600080fd5b6117aa81611669565b81146117b557600080fd5b50565b6000813590506117c7816117a1565b92915050565b6117d681611759565b81146117e157600080fd5b50565b6000813590506117f3816117cd565b92915050565b60008060006060848603121561181257611811611797565b5b6000611820868287016117b8565b9350506020611831868287016117e4565b9250506040611842868287016117e4565b9150509250925092565b600081519050919050565b600082825260208201905092915050565b60005b8381101561188657808201518184015260208101905061186b565b60008484015250505050565b6000601f19601f8301169050919050565b60006118ae8261184c565b6118b88185611857565b93506118c8818560208601611868565b6118d181611892565b840191505092915050565b600060208201905081810360008301526118f681846118a3565b905092915050565b6000806040838503121561191557611914611797565b5b6000611923858286016117b8565b9250506020611934858286016117e4565b9150509250929050565b60006020828403121561195457611953611797565b5b6000611962848285016117b8565b91505092915050565b60008115159050919050565b6119808161196b565b82525050565b600060208201905061199b6000830184611977565b92915050565b600081519050919050565b600082825260208201905092915050565b6000819050602082019050919050565b6119d681611759565b82525050565b60006119e883836119cd565b60208301905092915050565b6000602082019050919050565b6000611a0c826119a1565b611a1681856119ac565b9350611a21836119bd565b8060005b83811015611a52578151611a3988826119dc565b9750611a44836119f4565b925050600181019050611a25565b5085935050505092915050565b60006020820190508181036000830152611a798184611a01565b905092915050565b608082016000820151611a97600085018261167b565b506020820151611aaa602085018261167b565b506040820151611abd60408501826119cd565b506060820151611ad060608501826119cd565b50505050565b6000608082019050611aeb6000830184611a81565b92915050565b611afa8161196b565b8114611b0557600080fd5b50565b600081359050611b1781611af1565b92915050565b600060208284031215611b3357611b32611797565b5b6000611b4184828501611b08565b91505092915050565b6000606082019050611b5f600083018661172f565b611b6c6020830185611763565b611b796040830184611763565b949350505050565b600081519050919050565b600081905092915050565b6000611ba282611b81565b611bac8185611b8c565b9350611bbc818560208601611868565b80840191505092915050565b6000611bd48284611b97565b915081905092915050565b7f7472616e73616374696f6e206661696c65640000000000000000000000000000600082015250565b6000611c15601283611857565b9150611c2082611bdf565b602082019050919050565b60006020820190508181036000830152611c4481611c08565b9050919050565b600080fd5b600080fd5b7f4e487b7100000000000000000000000000000000000000000000000000000000600052604160045260246000fd5b611c8d82611892565b810181811067ffffffffffffffff82111715611cac57611cab611c55565b5b80604052505050565b6000611cbf61178d565b9050611ccb8282611c84565b919050565b600067ffffffffffffffff821115611ceb57611cea611c55565b5b611cf482611892565b9050602081019050919050565b6000611d14611d0f84611cd0565b611cb5565b905082815260208101848484011115611d3057611d2f611c50565b5b611d3b848285611868565b509392505050565b600082601f830112611d5857611d57611c4b565b5b8151611d68848260208601611d01565b91505092915050565b600060208284031215611d8757611d86611797565b5b600082015167ffffffffffffffff811115611da557611da461179c565b5b611db184828501611d43565b91505092915050565b6000604082019050611dcf600083018561172f565b611ddc6020830184611763565b9392505050565b60007fffffffff0000000000000000000000000000000000000000000000000000000082169050919050565b611e1881611de3565b82525050565b6000602082019050611e336000830184611e0f565b92915050565b600081519050611e4881611af1565b92915050565b600060208284031215611e6457611e63611797565b5b6000611e7284828501611e39565b91505092915050565b7f4e487b7100000000000000000000000000000000000000000000000000000000600052601160045260246000fd5b6000611eb582611759565b9150611ec083611759565b9250828201905080821115611ed857611ed7611e7b565b5b92915050565b7f596f75206861766520616c726561647920766f746564206f6e2074686973207060008201527f726f706f73616c00000000000000000000000000000000000000000000000000602082015250565b6000611f3a602783611857565b9150611f4582611ede565b604082019050919050565b60006020820190508181036000830152611f6981611f2d565b9050919050565b7f4e6f7420617574686f72697a656420746f20766f746500000000000000000000600082015250565b6000611fa6601683611857565b9150611fb182611f70565b602082019050919050565b60006020820190508181036000830152611fd581611f99565b9050919050565b7f6d61726b6574706c6163652063616e206f6e6c7920626520757067726164656460008201527f20627920746865206f776e657200000000000000000000000000000000000000602082015250565b6000612038602d83611857565b915061204382611fdc565b604082019050919050565b600060208201905081810360008301526120678161202b565b9050919050565b7f566f746572732068617665206e6f7420636f6d706c6574656420766f74696e67600082015250565b60006120a4602083611857565b91506120af8261206e565b602082019050919050565b600060208201905081810360008301526120d381612097565b9050919050565b7f566f746572732068617665206e6f7420616772656564206f6e2074686520707260008201527f6f706f73616c0000000000000000000000000000000000000000000000000000602082015250565b6000612136602683611857565b9150612141826120da565b604082019050919050565b6000602082019050818103600083015261216581612129565b9050919050565b7f5265656e7472616e637947756172643a207265656e7472616e742063616c6c00600082015250565b60006121a2601f83611857565b91506121ad8261216c565b602082019050919050565b600060208201905081810360008301526121d181612195565b905091905056fea2646970667358221220be85409cef08dc07e5a3b114bdb304aa65b45a448e2a35a1430f0a1e2c10723764736f6c63430008110033",
  "linkReferences": {},
  "deployedLinkReferences": {}
}