{
  "_format": "hh-sol-artifact-1",
  "contractName": "ASE_Proxy",
  "sourceName": "contracts/ASEProxy.sol",
  "abi": [
    {
      "inputs": [
        {
          "internalType": "address",
          "name": "_implContract",
          "type": "address"
        },
        {
          "internalType": "address",
          "name": "address1",
          "type": "address"
        },
        {
          "internalType": "address",
          "name": "address2",
          "type": "address"
        }
      ],
      "stateMutability": "nonpayable",
      "type": "constructor"
    },
    {
      "anonymous": false,
      "inputs": [
        {
          "indexed": true,
          "internalType": "address",
          "name": "marketowner",
          "type": "address"
        },
        {
          "indexed": true,
          "internalType": "address",
          "name": "newImplAddrs",
          "type": "address"
        }
      ],
      "name": "ImplUpgrade",
      "type": "event"
    },
    {
      "anonymous": false,
      "inputs": [
        {
          "indexed": true,
          "internalType": "address",
          "name": "buyer",
          "type": "address"
        },
        {
          "indexed": true,
          "internalType": "address",
          "name": "nftAddress",
          "type": "address"
        },
        {
          "indexed": true,
          "internalType": "uint256",
          "name": "tokenId",
          "type": "uint256"
        },
        {
          "indexed": false,
          "internalType": "uint256",
          "name": "price",
          "type": "uint256"
        }
      ],
      "name": "ItemBought",
      "type": "event"
    },
    {
      "anonymous": false,
      "inputs": [
        {
          "indexed": true,
          "internalType": "address",
          "name": "seller",
          "type": "address"
        },
        {
          "indexed": true,
          "internalType": "address",
          "name": "nftAddress",
          "type": "address"
        },
        {
          "indexed": true,
          "internalType": "uint256",
          "name": "tokenId",
          "type": "uint256"
        }
      ],
      "name": "ItemCanceled",
      "type": "event"
    },
    {
      "anonymous": false,
      "inputs": [
        {
          "indexed": true,
          "internalType": "address",
          "name": "seller",
          "type": "address"
        },
        {
          "indexed": true,
          "internalType": "address",
          "name": "nftAddress",
          "type": "address"
        },
        {
          "indexed": true,
          "internalType": "uint256",
          "name": "tokenId",
          "type": "uint256"
        },
        {
          "indexed": false,
          "internalType": "uint256",
          "name": "price",
          "type": "uint256"
        }
      ],
      "name": "ItemListed",
      "type": "event"
    },
    {
      "inputs": [
        {
          "internalType": "address",
          "name": "nftAddress",
          "type": "address"
        },
        {
          "internalType": "uint256",
          "name": "tokenId",
          "type": "uint256"
        }
      ],
      "name": "buyItem",
      "outputs": [
        {
          "internalType": "string",
          "name": "",
          "type": "string"
        }
      ],
      "stateMutability": "payable",
      "type": "function"
    },
    {
      "inputs": [
        {
          "internalType": "address",
          "name": "nftAddress",
          "type": "address"
        },
        {
          "internalType": "uint256",
          "name": "tokenId",
          "type": "uint256"
        }
      ],
      "name": "cancelListing",
      "outputs": [
        {
          "internalType": "string",
          "name": "",
          "type": "string"
        }
      ],
      "stateMutability": "nonpayable",
      "type": "function"
    },
    {
      "inputs": [
        {
          "internalType": "address",
          "name": "cAddress",
          "type": "address"
        }
      ],
      "name": "createVotingProposal",
      "outputs": [],
      "stateMutability": "nonpayable",
      "type": "function"
    },
    {
      "inputs": [
        {
          "internalType": "address",
          "name": "nftAddress",
          "type": "address"
        },
        {
          "internalType": "uint256",
          "name": "tokenId",
          "type": "uint256"
        }
      ],
      "name": "getASListing",
      "outputs": [
        {
          "components": [
            {
              "internalType": "address",
              "name": "owner",
              "type": "address"
            },
            {
              "internalType": "address",
              "name": "nftContract",
              "type": "address"
            },
            {
              "internalType": "uint256",
              "name": "tokenId",
              "type": "uint256"
            },
            {
              "internalType": "uint256",
              "name": "price",
              "type": "uint256"
            }
          ],
          "internalType": "struct ASE_Proxy.Listing_sell",
          "name": "",
          "type": "tuple"
        }
      ],
      "stateMutability": "view",
      "type": "function"
    },
    {
      "inputs": [],
      "name": "getImplAddrs",
      "outputs": [
        {
          "internalType": "address",
          "name": "",
          "type": "address"
        }
      ],
      "stateMutability": "view",
      "type": "function"
    },
    {
      "inputs": [],
      "name": "getProceeds",
      "outputs": [
        {
          "internalType": "uint256",
          "name": "",
          "type": "uint256"
        }
      ],
      "stateMutability": "view",
      "type": "function"
    },
    {
      "inputs": [
        {
          "internalType": "address",
          "name": "nftAddress",
          "type": "address"
        }
      ],
      "name": "getSListedAdddressTokens",
      "outputs": [
        {
          "internalType": "uint256[]",
          "name": "",
          "type": "uint256[]"
        }
      ],
      "stateMutability": "view",
      "type": "function"
    },
    {
      "inputs": [],
      "name": "getSListedAdddresses",
      "outputs": [
        {
          "internalType": "address[]",
          "name": "",
          "type": "address[]"
        }
      ],
      "stateMutability": "view",
      "type": "function"
    },
    {
      "inputs": [
        {
          "internalType": "address",
          "name": "nftContract",
          "type": "address"
        }
      ],
      "name": "isNFT",
      "outputs": [
        {
          "internalType": "bool",
          "name": "",
          "type": "bool"
        }
      ],
      "stateMutability": "view",
      "type": "function"
    },
    {
      "inputs": [],
      "name": "isProposalApproved",
      "outputs": [
        {
          "internalType": "bool",
          "name": "",
          "type": "bool"
        }
      ],
      "stateMutability": "view",
      "type": "function"
    },
    {
      "inputs": [
        {
          "internalType": "address",
          "name": "nftAddress",
          "type": "address"
        },
        {
          "internalType": "uint256",
          "name": "tokenId",
          "type": "uint256"
        },
        {
          "internalType": "uint256",
          "name": "price",
          "type": "uint256"
        }
      ],
      "name": "listItem",
      "outputs": [
        {
          "internalType": "string",
          "name": "",
          "type": "string"
        }
      ],
      "stateMutability": "nonpayable",
      "type": "function"
    },
    {
      "inputs": [],
      "name": "updateImplContract",
      "outputs": [],
      "stateMutability": "nonpayable",
      "type": "function"
    },
    {
      "inputs": [
        {
          "internalType": "address",
          "name": "nftAddress",
          "type": "address"
        },
        {
          "internalType": "uint256",
          "name": "tokenId",
          "type": "uint256"
        },
        {
          "internalType": "uint256",
          "name": "newPrice",
          "type": "uint256"
        }
      ],
      "name": "updateListing",
      "outputs": [
        {
          "internalType": "string",
          "name": "",
          "type": "string"
        }
      ],
      "stateMutability": "nonpayable",
      "type": "function"
    },
    {
      "inputs": [
        {
          "internalType": "bool",
          "name": "supportChanges",
          "type": "bool"
        }
      ],
      "name": "voteOnProposal",
      "outputs": [],
      "stateMutability": "nonpayable",
      "type": "function"
    },
    {
      "inputs": [],
      "name": "withdrawProceeds",
      "outputs": [
        {
          "internalType": "string",
          "name": "",
          "type": "string"
        }
      ],
      "stateMutability": "nonpayable",
      "type": "function"
    }
  ],
  "bytecode": "0x6080604052662386f26fc100006002553480156200001c57600080fd5b50604051620022f6380380620022f68339818101604052810190620000429190620001c1565b600160008190555033600160006101000a81548173ffffffffffffffffffffffffffffffffffffffff021916908373ffffffffffffffffffffffffffffffffffffffff16021790555082600960006101000a81548173ffffffffffffffffffffffffffffffffffffffff021916908373ffffffffffffffffffffffffffffffffffffffff16021790555081600b60006101000a81548173ffffffffffffffffffffffffffffffffffffffff021916908373ffffffffffffffffffffffffffffffffffffffff16021790555080600c60006101000a81548173ffffffffffffffffffffffffffffffffffffffff021916908373ffffffffffffffffffffffffffffffffffffffff1602179055505050506200021d565b600080fd5b600073ffffffffffffffffffffffffffffffffffffffff82169050919050565b600062000189826200015c565b9050919050565b6200019b816200017c565b8114620001a757600080fd5b50565b600081519050620001bb8162000190565b92915050565b600080600060608486031215620001dd57620001dc62000157565b5b6000620001ed86828701620001aa565b93505060206200020086828701620001aa565b92505060406200021386828701620001aa565b9150509250925092565b6120c9806200022d6000396000f3fe6080604052600436106100e85760003560e01c8063b2ddee061161008a578063e3ccb80911610059578063e3ccb80914610325578063f5fa4d471461034e578063f772adf114610365578063f8e97ef9146103a2576100e8565b8063b2ddee0614610231578063b31b85c91461026e578063be587251146102ab578063cc6b11b1146102e8576100e8565b806389bfd38f116100c657806389bfd38f1461016e5780639038e693146101ab5780639f37092a146101d6578063ae546f7e14610206576100e8565b8063341a0b8a146100ed5780636ae012c81461011857806383bd958714610143575b600080fd5b3480156100f957600080fd5b506101026103cb565b60405161010f91906115e0565b60405180910390f35b34801561012457600080fd5b5061012d6103e2565b60405161013a9190611611565b60405180910390f35b34801561014f57600080fd5b5061015861040c565b6040516101659190611645565b60405180910390f35b34801561017a57600080fd5b50610195600480360381019061019091906116cc565b610453565b6040516101a291906117af565b60405180910390f35b3480156101b757600080fd5b506101c06105d4565b6040516101cd91906117af565b60405180910390f35b6101f060048036038101906101eb91906117d1565b610742565b6040516101fd91906117af565b60405180910390f35b34801561021257600080fd5b5061021b6108c0565b604051610228919061182c565b60405180910390f35b34801561023d57600080fd5b50610258600480360381019061025391906117d1565b610913565b60405161026591906117af565b60405180910390f35b34801561027a57600080fd5b5061029560048036038101906102909190611847565b610a91565b6040516102a2919061182c565b60405180910390f35b3480156102b757600080fd5b506102d260048036038101906102cd9190611847565b610b47565b6040516102df9190611932565b60405180910390f35b3480156102f457600080fd5b5061030f600480360381019061030a91906117d1565b610b9d565b60405161031c91906119a9565b60405180910390f35b34801561033157600080fd5b5061034c600480360381019061034791906119f0565b610cc8565b005b34801561035a57600080fd5b50610363610e5a565b005b34801561037157600080fd5b5061038c600480360381019061038791906116cc565b6110f4565b60405161039991906117af565b60405180910390f35b3480156103ae57600080fd5b506103c960048036038101906103c49190611847565b611275565b005b606060006103d9600661138a565b90508091505090565b6000600960009054906101000a900473ffffffffffffffffffffffffffffffffffffffff16905090565b6000600460003373ffffffffffffffffffffffffffffffffffffffff1673ffffffffffffffffffffffffffffffffffffffff16815260200190815260200160002054905090565b6060600080600960009054906101000a900473ffffffffffffffffffffffffffffffffffffffff1673ffffffffffffffffffffffffffffffffffffffff168686866040516024016104a693929190611a1d565b6040516020818303038152906040527f89bfd38f000000000000000000000000000000000000000000000000000000007bffffffffffffffffffffffffffffffffffffffffffffffffffffffff19166020820180517bffffffffffffffffffffffffffffffffffffffffffffffffffffffff83818316178352505050506040516105309190611a9b565b600060405180830381855af49150503d806000811461056b576040519150601f19603f3d011682016040523d82523d6000602084013e610570565b606091505b5091509150816105b5576040517f08c379a00000000000000000000000000000000000000000000000000000000081526004016105ac90611afe565b60405180910390fd5b808060200190518101906105c99190611c44565b925050509392505050565b6060600080600960009054906101000a900473ffffffffffffffffffffffffffffffffffffffff1673ffffffffffffffffffffffffffffffffffffffff166040516024016040516020818303038152906040527f9038e693000000000000000000000000000000000000000000000000000000007bffffffffffffffffffffffffffffffffffffffffffffffffffffffff19166020820180517bffffffffffffffffffffffffffffffffffffffffffffffffffffffff83818316178352505050506040516106a29190611a9b565b600060405180830381855af49150503d80600081146106dd576040519150601f19603f3d011682016040523d82523d6000602084013e6106e2565b606091505b509150915081610727576040517f08c379a000000000000000000000000000000000000000000000000000000000815260040161071e90611afe565b60405180910390fd5b8080602001905181019061073b9190611c44565b9250505090565b6060600080600960009054906101000a900473ffffffffffffffffffffffffffffffffffffffff1673ffffffffffffffffffffffffffffffffffffffff168585604051602401610793929190611c8d565b6040516020818303038152906040527f9f37092a000000000000000000000000000000000000000000000000000000007bffffffffffffffffffffffffffffffffffffffffffffffffffffffff19166020820180517bffffffffffffffffffffffffffffffffffffffffffffffffffffffff838183161783525050505060405161081d9190611a9b565b600060405180830381855af49150503d8060008114610858576040519150601f19603f3d011682016040523d82523d6000602084013e61085d565b606091505b5091509150816108a2576040517f08c379a000000000000000000000000000000000000000000000000000000000815260040161089990611afe565b60405180910390fd5b808060200190518101906108b69190611c44565b9250505092915050565b600080600a60000160159054906101000a900460ff16600a60000160149054906101000a900460ff166108f39190611cf2565b905060048160ff160361090a576001915050610910565b60009150505b90565b6060600080600960009054906101000a900473ffffffffffffffffffffffffffffffffffffffff1673ffffffffffffffffffffffffffffffffffffffff168585604051602401610964929190611c8d565b6040516020818303038152906040527fb2ddee06000000000000000000000000000000000000000000000000000000007bffffffffffffffffffffffffffffffffffffffffffffffffffffffff19166020820180517bffffffffffffffffffffffffffffffffffffffffffffffffffffffff83818316178352505050506040516109ee9190611a9b565b600060405180830381855af49150503d8060008114610a29576040519150601f19603f3d011682016040523d82523d6000602084013e610a2e565b606091505b509150915081610a73576040517f08c379a0000000000000000000000000000000000000000000000000000000008152600401610a6a90611afe565b60405180910390fd5b80806020019051810190610a879190611c44565b9250505092915050565b600080600090508273ffffffffffffffffffffffffffffffffffffffff166301ffc9a77f80ac58cd000000000000000000000000000000000000000000000000000000006040518263ffffffff1660e01b8152600401610af19190611d62565b602060405180830381865afa925050508015610b2b57506040513d601f19601f82011682018060405250810190610b289190611d92565b60015b610b39576000915050610b42565b80915050809150505b919050565b60606000610b92600560008573ffffffffffffffffffffffffffffffffffffffff1673ffffffffffffffffffffffffffffffffffffffff1681526020019081526020016000206113ab565b905080915050919050565b610ba561149c565b600360008473ffffffffffffffffffffffffffffffffffffffff1673ffffffffffffffffffffffffffffffffffffffff16815260200190815260200160002060008381526020019081526020016000206040518060800160405290816000820160009054906101000a900473ffffffffffffffffffffffffffffffffffffffff1673ffffffffffffffffffffffffffffffffffffffff1673ffffffffffffffffffffffffffffffffffffffff1681526020016001820160009054906101000a900473ffffffffffffffffffffffffffffffffffffffff1673ffffffffffffffffffffffffffffffffffffffff1673ffffffffffffffffffffffffffffffffffffffff16815260200160028201548152602001600382015481525050905092915050565b600b60009054906101000a900473ffffffffffffffffffffffffffffffffffffffff1673ffffffffffffffffffffffffffffffffffffffff163373ffffffffffffffffffffffffffffffffffffffff161480610d715750600c60009054906101000a900473ffffffffffffffffffffffffffffffffffffffff1673ffffffffffffffffffffffffffffffffffffffff163373ffffffffffffffffffffffffffffffffffffffff16145b610db0576040517f08c379a0000000000000000000000000000000000000000000000000000000008152600401610da790611e0b565b60405180910390fd5b600b60009054906101000a900473ffffffffffffffffffffffffffffffffffffffff1673ffffffffffffffffffffffffffffffffffffffff163373ffffffffffffffffffffffffffffffffffffffff1603610e3057610e0e816113cc565b600a60000160146101000a81548160ff021916908360ff160217905550610e57565b610e39816113cc565b600a60000160156101000a81548160ff021916908360ff1602179055505b50565b610e626113e7565b600160009054906101000a900473ffffffffffffffffffffffffffffffffffffffff1673ffffffffffffffffffffffffffffffffffffffff163373ffffffffffffffffffffffffffffffffffffffff1614610ef2576040517f08c379a0000000000000000000000000000000000000000000000000000000008152600401610ee990611e9d565b60405180910390fd5b6000600a60000160149054906101000a900460ff1660ff1614158015610f2e57506000600a60000160159054906101000a900460ff1660ff1614155b610f6d576040517f08c379a0000000000000000000000000000000000000000000000000000000008152600401610f6490611f09565b60405180910390fd5b6002600a60000160149054906101000a900460ff1660ff16148015610fa757506002600a60000160159054906101000a900460ff1660ff16145b610fe6576040517f08c379a0000000000000000000000000000000000000000000000000000000008152600401610fdd90611f9b565b60405180910390fd5b600a60000160009054906101000a900473ffffffffffffffffffffffffffffffffffffffff16600960006101000a81548173ffffffffffffffffffffffffffffffffffffffff021916908373ffffffffffffffffffffffffffffffffffffffff160217905550600960009054906101000a900473ffffffffffffffffffffffffffffffffffffffff1673ffffffffffffffffffffffffffffffffffffffff16600160009054906101000a900473ffffffffffffffffffffffffffffffffffffffff1673ffffffffffffffffffffffffffffffffffffffff167f1ed34c9a7b236ee6031785cd9ca32de930e1ae39020c1279886b687a307e7fcb60405160405180910390a36110f2611436565b565b6060600080600960009054906101000a900473ffffffffffffffffffffffffffffffffffffffff1673ffffffffffffffffffffffffffffffffffffffff1686868660405160240161114793929190611a1d565b6040516020818303038152906040527ff772adf1000000000000000000000000000000000000000000000000000000007bffffffffffffffffffffffffffffffffffffffffffffffffffffffff19166020820180517bffffffffffffffffffffffffffffffffffffffffffffffffffffffff83818316178352505050506040516111d19190611a9b565b600060405180830381855af49150503d806000811461120c576040519150601f19603f3d011682016040523d82523d6000602084013e611211565b606091505b509150915081611256576040517f08c379a000000000000000000000000000000000000000000000000000000000815260040161124d90611afe565b60405180910390fd5b8080602001905181019061126a9190611c44565b925050509392505050565b600160009054906101000a900473ffffffffffffffffffffffffffffffffffffffff1673ffffffffffffffffffffffffffffffffffffffff163373ffffffffffffffffffffffffffffffffffffffff1614611305576040517f08c379a00000000000000000000000000000000000000000000000000000000081526004016112fc90612007565b60405180910390fd5b80600a60000160006101000a81548173ffffffffffffffffffffffffffffffffffffffff021916908373ffffffffffffffffffffffffffffffffffffffff1602179055506000600a60000160146101000a81548160ff021916908360ff1602179055506000600a60000160156101000a81548160ff021916908360ff16021790555050565b6060600061139a83600001611440565b905060608190508092505050919050565b606060006113bb83600001611440565b905060608190508092505050919050565b600081156113dd57600290506113e2565b600190505b919050565b60026000540361142c576040517f08c379a000000000000000000000000000000000000000000000000000000000815260040161142390612073565b60405180910390fd5b6002600081905550565b6001600081905550565b60608160000180548060200260200160405190810160405280929190818152602001828054801561149057602002820191906000526020600020905b81548152602001906001019080831161147c575b50505050509050919050565b6040518060800160405280600073ffffffffffffffffffffffffffffffffffffffff168152602001600073ffffffffffffffffffffffffffffffffffffffff16815260200160008152602001600081525090565b600081519050919050565b600082825260208201905092915050565b6000819050602082019050919050565b600073ffffffffffffffffffffffffffffffffffffffff82169050919050565b60006115478261151c565b9050919050565b6115578161153c565b82525050565b6000611569838361154e565b60208301905092915050565b6000602082019050919050565b600061158d826114f0565b61159781856114fb565b93506115a28361150c565b8060005b838110156115d35781516115ba888261155d565b97506115c583611575565b9250506001810190506115a6565b5085935050505092915050565b600060208201905081810360008301526115fa8184611582565b905092915050565b61160b8161153c565b82525050565b60006020820190506116266000830184611602565b92915050565b6000819050919050565b61163f8161162c565b82525050565b600060208201905061165a6000830184611636565b92915050565b6000604051905090565b600080fd5b600080fd5b61167d8161153c565b811461168857600080fd5b50565b60008135905061169a81611674565b92915050565b6116a98161162c565b81146116b457600080fd5b50565b6000813590506116c6816116a0565b92915050565b6000806000606084860312156116e5576116e461166a565b5b60006116f38682870161168b565b9350506020611704868287016116b7565b9250506040611715868287016116b7565b9150509250925092565b600081519050919050565b600082825260208201905092915050565b60005b8381101561175957808201518184015260208101905061173e565b60008484015250505050565b6000601f19601f8301169050919050565b60006117818261171f565b61178b818561172a565b935061179b81856020860161173b565b6117a481611765565b840191505092915050565b600060208201905081810360008301526117c98184611776565b905092915050565b600080604083850312156117e8576117e761166a565b5b60006117f68582860161168b565b9250506020611807858286016116b7565b9150509250929050565b60008115159050919050565b61182681611811565b82525050565b6000602082019050611841600083018461181d565b92915050565b60006020828403121561185d5761185c61166a565b5b600061186b8482850161168b565b91505092915050565b600081519050919050565b600082825260208201905092915050565b6000819050602082019050919050565b6118a98161162c565b82525050565b60006118bb83836118a0565b60208301905092915050565b6000602082019050919050565b60006118df82611874565b6118e9818561187f565b93506118f483611890565b8060005b8381101561192557815161190c88826118af565b9750611917836118c7565b9250506001810190506118f8565b5085935050505092915050565b6000602082019050818103600083015261194c81846118d4565b905092915050565b60808201600082015161196a600085018261154e565b50602082015161197d602085018261154e565b50604082015161199060408501826118a0565b5060608201516119a360608501826118a0565b50505050565b60006080820190506119be6000830184611954565b92915050565b6119cd81611811565b81146119d857600080fd5b50565b6000813590506119ea816119c4565b92915050565b600060208284031215611a0657611a0561166a565b5b6000611a14848285016119db565b91505092915050565b6000606082019050611a326000830186611602565b611a3f6020830185611636565b611a4c6040830184611636565b949350505050565b600081519050919050565b600081905092915050565b6000611a7582611a54565b611a7f8185611a5f565b9350611a8f81856020860161173b565b80840191505092915050565b6000611aa78284611a6a565b915081905092915050565b7f7472616e73616374696f6e206661696c65640000000000000000000000000000600082015250565b6000611ae860128361172a565b9150611af382611ab2565b602082019050919050565b60006020820190508181036000830152611b1781611adb565b9050919050565b600080fd5b600080fd5b7f4e487b7100000000000000000000000000000000000000000000000000000000600052604160045260246000fd5b611b6082611765565b810181811067ffffffffffffffff82111715611b7f57611b7e611b28565b5b80604052505050565b6000611b92611660565b9050611b9e8282611b57565b919050565b600067ffffffffffffffff821115611bbe57611bbd611b28565b5b611bc782611765565b9050602081019050919050565b6000611be7611be284611ba3565b611b88565b905082815260208101848484011115611c0357611c02611b23565b5b611c0e84828561173b565b509392505050565b600082601f830112611c2b57611c2a611b1e565b5b8151611c3b848260208601611bd4565b91505092915050565b600060208284031215611c5a57611c5961166a565b5b600082015167ffffffffffffffff811115611c7857611c7761166f565b5b611c8484828501611c16565b91505092915050565b6000604082019050611ca26000830185611602565b611caf6020830184611636565b9392505050565b600060ff82169050919050565b7f4e487b7100000000000000000000000000000000000000000000000000000000600052601160045260246000fd5b6000611cfd82611cb6565b9150611d0883611cb6565b9250828201905060ff811115611d2157611d20611cc3565b5b92915050565b60007fffffffff0000000000000000000000000000000000000000000000000000000082169050919050565b611d5c81611d27565b82525050565b6000602082019050611d776000830184611d53565b92915050565b600081519050611d8c816119c4565b92915050565b600060208284031215611da857611da761166a565b5b6000611db684828501611d7d565b91505092915050565b7f4e6f7420617574686f72697a656420746f20766f746500000000000000000000600082015250565b6000611df560168361172a565b9150611e0082611dbf565b602082019050919050565b60006020820190508181036000830152611e2481611de8565b9050919050565b7f6d61726b6574706c6163652063616e206f6e6c7920626520757067726164656460008201527f20627920746865206f776e657200000000000000000000000000000000000000602082015250565b6000611e87602d8361172a565b9150611e9282611e2b565b604082019050919050565b60006020820190508181036000830152611eb681611e7a565b9050919050565b7f566f746572732068617665206e6f7420636f6d706c6574656420766f74696e67600082015250565b6000611ef360208361172a565b9150611efe82611ebd565b602082019050919050565b60006020820190508181036000830152611f2281611ee6565b9050919050565b7f566f746572732068617665206e6f7420616772656564206f6e2074686520707260008201527f6f706f73616c0000000000000000000000000000000000000000000000000000602082015250565b6000611f8560268361172a565b9150611f9082611f29565b604082019050919050565b60006020820190508181036000830152611fb481611f78565b9050919050565b7f596f7520617265206e6f7420746865206d61726b6574206f776e657200000000600082015250565b6000611ff1601c8361172a565b9150611ffc82611fbb565b602082019050919050565b6000602082019050818103600083015261202081611fe4565b9050919050565b7f5265656e7472616e637947756172643a207265656e7472616e742063616c6c00600082015250565b600061205d601f8361172a565b915061206882612027565b602082019050919050565b6000602082019050818103600083015261208c81612050565b905091905056fea2646970667358221220167b6f062c660dcd1d3564291404e9e26f6547c5521f98c5adbd85e74d9b081564736f6c63430008110033",
  "linkReferences": {},
  "deployedLinkReferences": {}
}