{
  "_format": "hh-sol-artifact-1",
  "contractName": "ASE_Proxy",
  "sourceName": "contracts/ASEProxy.sol",
  "abi": [
    {
      "inputs": [
        {
          "internalType": "address",
          "name": "implContract",
          "type": "address"
        },
        {
          "internalType": "address",
          "name": "address1",
          "type": "address"
        },
        {
          "internalType": "address",
          "name": "address2",
          "type": "address"
        }
      ],
      "stateMutability": "nonpayable",
      "type": "constructor"
    },
    {
      "inputs": [],
      "name": "NotOwner",
      "type": "error"
    },
    {
      "anonymous": false,
      "inputs": [
        {
          "indexed": true,
          "internalType": "address",
          "name": "marketowner",
          "type": "address"
        },
        {
          "indexed": true,
          "internalType": "address",
          "name": "newImplAddrs",
          "type": "address"
        }
      ],
      "name": "ImplUpgrade",
      "type": "event"
    },
    {
      "anonymous": false,
      "inputs": [
        {
          "indexed": true,
          "internalType": "address",
          "name": "buyer",
          "type": "address"
        },
        {
          "indexed": true,
          "internalType": "address",
          "name": "nftAddress",
          "type": "address"
        },
        {
          "indexed": true,
          "internalType": "uint256",
          "name": "tokenId",
          "type": "uint256"
        },
        {
          "indexed": false,
          "internalType": "uint256",
          "name": "price",
          "type": "uint256"
        }
      ],
      "name": "ItemBought",
      "type": "event"
    },
    {
      "anonymous": false,
      "inputs": [
        {
          "indexed": true,
          "internalType": "address",
          "name": "seller",
          "type": "address"
        },
        {
          "indexed": true,
          "internalType": "address",
          "name": "nftAddress",
          "type": "address"
        },
        {
          "indexed": true,
          "internalType": "uint256",
          "name": "tokenId",
          "type": "uint256"
        }
      ],
      "name": "ItemCanceled",
      "type": "event"
    },
    {
      "anonymous": false,
      "inputs": [
        {
          "indexed": true,
          "internalType": "address",
          "name": "seller",
          "type": "address"
        },
        {
          "indexed": true,
          "internalType": "address",
          "name": "nftAddress",
          "type": "address"
        },
        {
          "indexed": true,
          "internalType": "uint256",
          "name": "tokenId",
          "type": "uint256"
        },
        {
          "indexed": false,
          "internalType": "uint256",
          "name": "price",
          "type": "uint256"
        }
      ],
      "name": "ItemListed",
      "type": "event"
    },
    {
      "inputs": [
        {
          "internalType": "address",
          "name": "nftAddress",
          "type": "address"
        },
        {
          "internalType": "uint256",
          "name": "tokenId",
          "type": "uint256"
        }
      ],
      "name": "buyItem",
      "outputs": [
        {
          "internalType": "string",
          "name": "",
          "type": "string"
        }
      ],
      "stateMutability": "payable",
      "type": "function"
    },
    {
      "inputs": [
        {
          "internalType": "address",
          "name": "nftAddress",
          "type": "address"
        },
        {
          "internalType": "uint256",
          "name": "tokenId",
          "type": "uint256"
        }
      ],
      "name": "cancelListing",
      "outputs": [
        {
          "internalType": "string",
          "name": "",
          "type": "string"
        }
      ],
      "stateMutability": "nonpayable",
      "type": "function"
    },
    {
      "inputs": [
        {
          "internalType": "address",
          "name": "cAddress",
          "type": "address"
        }
      ],
      "name": "createVotingProposal",
      "outputs": [],
      "stateMutability": "nonpayable",
      "type": "function"
    },
    {
      "inputs": [
        {
          "internalType": "address",
          "name": "nftAddress",
          "type": "address"
        },
        {
          "internalType": "uint256",
          "name": "tokenId",
          "type": "uint256"
        }
      ],
      "name": "getASListing",
      "outputs": [
        {
          "components": [
            {
              "internalType": "address",
              "name": "owner",
              "type": "address"
            },
            {
              "internalType": "address",
              "name": "nftContract",
              "type": "address"
            },
            {
              "internalType": "uint256",
              "name": "tokenId",
              "type": "uint256"
            },
            {
              "internalType": "uint256",
              "name": "price",
              "type": "uint256"
            }
          ],
          "internalType": "struct ASE_Proxy.Listing_sell",
          "name": "",
          "type": "tuple"
        }
      ],
      "stateMutability": "view",
      "type": "function"
    },
    {
      "inputs": [],
      "name": "getImplAddrs",
      "outputs": [
        {
          "internalType": "address",
          "name": "",
          "type": "address"
        }
      ],
      "stateMutability": "view",
      "type": "function"
    },
    {
      "inputs": [],
      "name": "getListingFee",
      "outputs": [
        {
          "internalType": "uint256",
          "name": "",
          "type": "uint256"
        }
      ],
      "stateMutability": "view",
      "type": "function"
    },
    {
      "inputs": [],
      "name": "getProceeds",
      "outputs": [
        {
          "internalType": "uint256",
          "name": "",
          "type": "uint256"
        }
      ],
      "stateMutability": "view",
      "type": "function"
    },
    {
      "inputs": [
        {
          "internalType": "address",
          "name": "nftAddress",
          "type": "address"
        }
      ],
      "name": "getSListedAdddressTokens",
      "outputs": [
        {
          "internalType": "uint256[]",
          "name": "",
          "type": "uint256[]"
        }
      ],
      "stateMutability": "view",
      "type": "function"
    },
    {
      "inputs": [],
      "name": "getSListedAdddresses",
      "outputs": [
        {
          "internalType": "address[]",
          "name": "",
          "type": "address[]"
        }
      ],
      "stateMutability": "view",
      "type": "function"
    },
    {
      "inputs": [
        {
          "internalType": "address",
          "name": "nftContract",
          "type": "address"
        }
      ],
      "name": "isNFT",
      "outputs": [
        {
          "internalType": "bool",
          "name": "",
          "type": "bool"
        }
      ],
      "stateMutability": "view",
      "type": "function"
    },
    {
      "inputs": [],
      "name": "isProposalApproved",
      "outputs": [
        {
          "internalType": "bool",
          "name": "",
          "type": "bool"
        }
      ],
      "stateMutability": "view",
      "type": "function"
    },
    {
      "inputs": [
        {
          "internalType": "address",
          "name": "nftAddress",
          "type": "address"
        },
        {
          "internalType": "uint256",
          "name": "tokenId",
          "type": "uint256"
        },
        {
          "internalType": "uint256",
          "name": "price",
          "type": "uint256"
        }
      ],
      "name": "listItem",
      "outputs": [
        {
          "internalType": "string",
          "name": "",
          "type": "string"
        }
      ],
      "stateMutability": "payable",
      "type": "function"
    },
    {
      "inputs": [],
      "name": "updateImplContract",
      "outputs": [],
      "stateMutability": "nonpayable",
      "type": "function"
    },
    {
      "inputs": [
        {
          "internalType": "address",
          "name": "nftAddress",
          "type": "address"
        },
        {
          "internalType": "uint256",
          "name": "tokenId",
          "type": "uint256"
        },
        {
          "internalType": "uint256",
          "name": "newPrice",
          "type": "uint256"
        }
      ],
      "name": "updateListing",
      "outputs": [
        {
          "internalType": "string",
          "name": "",
          "type": "string"
        }
      ],
      "stateMutability": "nonpayable",
      "type": "function"
    },
    {
      "inputs": [
        {
          "internalType": "uint256",
          "name": "newFee",
          "type": "uint256"
        }
      ],
      "name": "updateListingFee",
      "outputs": [],
      "stateMutability": "nonpayable",
      "type": "function"
    },
    {
      "inputs": [
        {
          "internalType": "bool",
          "name": "supportChanges",
          "type": "bool"
        }
      ],
      "name": "voteOnProposal",
      "outputs": [],
      "stateMutability": "nonpayable",
      "type": "function"
    },
    {
      "inputs": [],
      "name": "withdrawProceeds",
      "outputs": [
        {
          "internalType": "string",
          "name": "",
          "type": "string"
        }
      ],
      "stateMutability": "nonpayable",
      "type": "function"
    }
  ],
  "bytecode": "0x608060405260006002553480156200001657600080fd5b506040516200245d3803806200245d83398181016040528101906200003c9190620001bb565b600160008190555033600160006101000a81548173ffffffffffffffffffffffffffffffffffffffff021916908373ffffffffffffffffffffffffffffffffffffffff16021790555082600860006101000a81548173ffffffffffffffffffffffffffffffffffffffff021916908373ffffffffffffffffffffffffffffffffffffffff16021790555081600a60006101000a81548173ffffffffffffffffffffffffffffffffffffffff021916908373ffffffffffffffffffffffffffffffffffffffff16021790555080600b60006101000a81548173ffffffffffffffffffffffffffffffffffffffff021916908373ffffffffffffffffffffffffffffffffffffffff16021790555050505062000217565b600080fd5b600073ffffffffffffffffffffffffffffffffffffffff82169050919050565b6000620001838262000156565b9050919050565b620001958162000176565b8114620001a157600080fd5b50565b600081519050620001b5816200018a565b92915050565b600080600060608486031215620001d757620001d662000151565b5b6000620001e786828701620001a4565b9350506020620001fa86828701620001a4565b92505060406200020d86828701620001a4565b9150509250925092565b61223680620002276000396000f3fe6080604052600436106100fe5760003560e01c8063b31b85c911610095578063e3ccb80911610064578063e3ccb80914610359578063f5fa4d4714610382578063f772adf114610399578063f79d91ae146103d6578063f8e97ef9146103ff576100fe565b8063b31b85c914610277578063b8fe6abe146102b4578063be587251146102df578063cc6b11b11461031c576100fe565b80639038e693116100d15780639038e693146101b45780639f37092a146101df578063ae546f7e1461020f578063b2ddee061461023a576100fe565b8063341a0b8a146101035780636ae012c81461012e57806383bd95871461015957806389bfd38f14610184575b600080fd5b34801561010f57600080fd5b50610118610428565b604051610125919061178c565b60405180910390f35b34801561013a57600080fd5b5061014361043f565b60405161015091906117bd565b60405180910390f35b34801561016557600080fd5b5061016e610469565b60405161017b91906117f1565b60405180910390f35b61019e60048036038101906101999190611878565b6104b0565b6040516101ab919061195b565b60405180910390f35b3480156101c057600080fd5b506101c9610631565b6040516101d6919061195b565b60405180910390f35b6101f960048036038101906101f4919061197d565b61079f565b604051610206919061195b565b60405180910390f35b34801561021b57600080fd5b5061022461091d565b60405161023191906119d8565b60405180910390f35b34801561024657600080fd5b50610261600480360381019061025c919061197d565b610970565b60405161026e919061195b565b60405180910390f35b34801561028357600080fd5b5061029e600480360381019061029991906119f3565b610aee565b6040516102ab91906119d8565b60405180910390f35b3480156102c057600080fd5b506102c9610ba4565b6040516102d691906117f1565b60405180910390f35b3480156102eb57600080fd5b50610306600480360381019061030191906119f3565b610bae565b6040516103139190611ade565b60405180910390f35b34801561032857600080fd5b50610343600480360381019061033e919061197d565b610c04565b6040516103509190611b55565b60405180910390f35b34801561036557600080fd5b50610380600480360381019061037b9190611b9c565b610d2f565b005b34801561038e57600080fd5b50610397610f71565b005b3480156103a557600080fd5b506103c060048036038101906103bb9190611878565b611204565b6040516103cd919061195b565b60405180910390f35b3480156103e257600080fd5b506103fd60048036038101906103f89190611bc9565b611385565b005b34801561040b57600080fd5b50610426600480360381019061042191906119f3565b611428565b005b606060006104366006611536565b90508091505090565b6000600860009054906101000a900473ffffffffffffffffffffffffffffffffffffffff16905090565b6000600460003373ffffffffffffffffffffffffffffffffffffffff1673ffffffffffffffffffffffffffffffffffffffff16815260200190815260200160002054905090565b6060600080600860009054906101000a900473ffffffffffffffffffffffffffffffffffffffff1673ffffffffffffffffffffffffffffffffffffffff1686868660405160240161050393929190611bf6565b6040516020818303038152906040527f89bfd38f000000000000000000000000000000000000000000000000000000007bffffffffffffffffffffffffffffffffffffffffffffffffffffffff19166020820180517bffffffffffffffffffffffffffffffffffffffffffffffffffffffff838183161783525050505060405161058d9190611c74565b600060405180830381855af49150503d80600081146105c8576040519150601f19603f3d011682016040523d82523d6000602084013e6105cd565b606091505b509150915081610612576040517f08c379a000000000000000000000000000000000000000000000000000000000815260040161060990611cd7565b60405180910390fd5b808060200190518101906106269190611e1d565b925050509392505050565b6060600080600860009054906101000a900473ffffffffffffffffffffffffffffffffffffffff1673ffffffffffffffffffffffffffffffffffffffff166040516024016040516020818303038152906040527f9038e693000000000000000000000000000000000000000000000000000000007bffffffffffffffffffffffffffffffffffffffffffffffffffffffff19166020820180517bffffffffffffffffffffffffffffffffffffffffffffffffffffffff83818316178352505050506040516106ff9190611c74565b600060405180830381855af49150503d806000811461073a576040519150601f19603f3d011682016040523d82523d6000602084013e61073f565b606091505b509150915081610784576040517f08c379a000000000000000000000000000000000000000000000000000000000815260040161077b90611cd7565b60405180910390fd5b808060200190518101906107989190611e1d565b9250505090565b6060600080600860009054906101000a900473ffffffffffffffffffffffffffffffffffffffff1673ffffffffffffffffffffffffffffffffffffffff1685856040516024016107f0929190611e66565b6040516020818303038152906040527f9f37092a000000000000000000000000000000000000000000000000000000007bffffffffffffffffffffffffffffffffffffffffffffffffffffffff19166020820180517bffffffffffffffffffffffffffffffffffffffffffffffffffffffff838183161783525050505060405161087a9190611c74565b600060405180830381855af49150503d80600081146108b5576040519150601f19603f3d011682016040523d82523d6000602084013e6108ba565b606091505b5091509150816108ff576040517f08c379a00000000000000000000000000000000000000000000000000000000081526004016108f690611cd7565b60405180910390fd5b808060200190518101906109139190611e1d565b9250505092915050565b600080600960000160159054906101000a900460ff16600960000160149054906101000a900460ff166109509190611ecb565b905060048160ff160361096757600191505061096d565b60009150505b90565b6060600080600860009054906101000a900473ffffffffffffffffffffffffffffffffffffffff1673ffffffffffffffffffffffffffffffffffffffff1685856040516024016109c1929190611e66565b6040516020818303038152906040527fb2ddee06000000000000000000000000000000000000000000000000000000007bffffffffffffffffffffffffffffffffffffffffffffffffffffffff19166020820180517bffffffffffffffffffffffffffffffffffffffffffffffffffffffff8381831617835250505050604051610a4b9190611c74565b600060405180830381855af49150503d8060008114610a86576040519150601f19603f3d011682016040523d82523d6000602084013e610a8b565b606091505b509150915081610ad0576040517f08c379a0000000000000000000000000000000000000000000000000000000008152600401610ac790611cd7565b60405180910390fd5b80806020019051810190610ae49190611e1d565b9250505092915050565b600080600090508273ffffffffffffffffffffffffffffffffffffffff166301ffc9a77f80ac58cd000000000000000000000000000000000000000000000000000000006040518263ffffffff1660e01b8152600401610b4e9190611f3b565b602060405180830381865afa925050508015610b8857506040513d601f19601f82011682018060405250810190610b859190611f6b565b60015b610b96576000915050610b9f565b80915050809150505b919050565b6000600254905090565b60606000610bf9600560008573ffffffffffffffffffffffffffffffffffffffff1673ffffffffffffffffffffffffffffffffffffffff168152602001908152602001600020611557565b905080915050919050565b610c0c611648565b600360008473ffffffffffffffffffffffffffffffffffffffff1673ffffffffffffffffffffffffffffffffffffffff16815260200190815260200160002060008381526020019081526020016000206040518060800160405290816000820160009054906101000a900473ffffffffffffffffffffffffffffffffffffffff1673ffffffffffffffffffffffffffffffffffffffff1673ffffffffffffffffffffffffffffffffffffffff1681526020016001820160009054906101000a900473ffffffffffffffffffffffffffffffffffffffff1673ffffffffffffffffffffffffffffffffffffffff1673ffffffffffffffffffffffffffffffffffffffff16815260200160028201548152602001600382015481525050905092915050565b600a60009054906101000a900473ffffffffffffffffffffffffffffffffffffffff1673ffffffffffffffffffffffffffffffffffffffff163373ffffffffffffffffffffffffffffffffffffffff161480610dd85750600b60009054906101000a900473ffffffffffffffffffffffffffffffffffffffff1673ffffffffffffffffffffffffffffffffffffffff163373ffffffffffffffffffffffffffffffffffffffff16145b610e17576040517f08c379a0000000000000000000000000000000000000000000000000000000008152600401610e0e90611fe4565b60405180910390fd5b600a60009054906101000a900473ffffffffffffffffffffffffffffffffffffffff1673ffffffffffffffffffffffffffffffffffffffff163373ffffffffffffffffffffffffffffffffffffffff1603610eef576000600960000160149054906101000a900460ff1660ff1614610ec4576040517f08c379a0000000000000000000000000000000000000000000000000000000008152600401610ebb90612076565b60405180910390fd5b610ecd81611578565b600960000160146101000a81548160ff021916908360ff160217905550610f6e565b6000600960000160159054906101000a900460ff1660ff1614610f47576040517f08c379a0000000000000000000000000000000000000000000000000000000008152600401610f3e90612076565b60405180910390fd5b610f5081611578565b600960000160156101000a81548160ff021916908360ff1602179055505b50565b610f79611593565b338073ffffffffffffffffffffffffffffffffffffffff16600160009054906101000a900473ffffffffffffffffffffffffffffffffffffffff1673ffffffffffffffffffffffffffffffffffffffff1614611001576040517f30cd747100000000000000000000000000000000000000000000000000000000815260040160405180910390fd5b6000600960000160149054906101000a900460ff1660ff161415801561103d57506000600960000160159054906101000a900460ff1660ff1614155b61107c576040517f08c379a0000000000000000000000000000000000000000000000000000000008152600401611073906120e2565b60405180910390fd5b6002600960000160149054906101000a900460ff1660ff161480156110b657506002600960000160159054906101000a900460ff1660ff16145b6110f5576040517f08c379a00000000000000000000000000000000000000000000000000000000081526004016110ec90612174565b60405180910390fd5b600960000160009054906101000a900473ffffffffffffffffffffffffffffffffffffffff16600860006101000a81548173ffffffffffffffffffffffffffffffffffffffff021916908373ffffffffffffffffffffffffffffffffffffffff160217905550600860009054906101000a900473ffffffffffffffffffffffffffffffffffffffff1673ffffffffffffffffffffffffffffffffffffffff16600160009054906101000a900473ffffffffffffffffffffffffffffffffffffffff1673ffffffffffffffffffffffffffffffffffffffff167f1ed34c9a7b236ee6031785cd9ca32de930e1ae39020c1279886b687a307e7fcb60405160405180910390a3506112026115e2565b565b6060600080600860009054906101000a900473ffffffffffffffffffffffffffffffffffffffff1673ffffffffffffffffffffffffffffffffffffffff1686868660405160240161125793929190611bf6565b6040516020818303038152906040527ff772adf1000000000000000000000000000000000000000000000000000000007bffffffffffffffffffffffffffffffffffffffffffffffffffffffff19166020820180517bffffffffffffffffffffffffffffffffffffffffffffffffffffffff83818316178352505050506040516112e19190611c74565b600060405180830381855af49150503d806000811461131c576040519150601f19603f3d011682016040523d82523d6000602084013e611321565b606091505b509150915081611366576040517f08c379a000000000000000000000000000000000000000000000000000000000815260040161135d90611cd7565b60405180910390fd5b8080602001905181019061137a9190611e1d565b925050509392505050565b61138d611593565b338073ffffffffffffffffffffffffffffffffffffffff16600160009054906101000a900473ffffffffffffffffffffffffffffffffffffffff1673ffffffffffffffffffffffffffffffffffffffff1614611415576040517f30cd747100000000000000000000000000000000000000000000000000000000815260040160405180910390fd5b81600281905550506114256115e2565b50565b338073ffffffffffffffffffffffffffffffffffffffff16600160009054906101000a900473ffffffffffffffffffffffffffffffffffffffff1673ffffffffffffffffffffffffffffffffffffffff16146114b0576040517f30cd747100000000000000000000000000000000000000000000000000000000815260040160405180910390fd5b81600960000160006101000a81548173ffffffffffffffffffffffffffffffffffffffff021916908373ffffffffffffffffffffffffffffffffffffffff1602179055506000600960000160146101000a81548160ff021916908360ff1602179055506000600960000160156101000a81548160ff021916908360ff1602179055505050565b60606000611546836000016115ec565b905060608190508092505050919050565b60606000611567836000016115ec565b905060608190508092505050919050565b60008115611589576002905061158e565b600190505b919050565b6002600054036115d8576040517f08c379a00000000000000000000000000000000000000000000000000000000081526004016115cf906121e0565b60405180910390fd5b6002600081905550565b6001600081905550565b60608160000180548060200260200160405190810160405280929190818152602001828054801561163c57602002820191906000526020600020905b815481526020019060010190808311611628575b50505050509050919050565b6040518060800160405280600073ffffffffffffffffffffffffffffffffffffffff168152602001600073ffffffffffffffffffffffffffffffffffffffff16815260200160008152602001600081525090565b600081519050919050565b600082825260208201905092915050565b6000819050602082019050919050565b600073ffffffffffffffffffffffffffffffffffffffff82169050919050565b60006116f3826116c8565b9050919050565b611703816116e8565b82525050565b600061171583836116fa565b60208301905092915050565b6000602082019050919050565b60006117398261169c565b61174381856116a7565b935061174e836116b8565b8060005b8381101561177f5781516117668882611709565b975061177183611721565b925050600181019050611752565b5085935050505092915050565b600060208201905081810360008301526117a6818461172e565b905092915050565b6117b7816116e8565b82525050565b60006020820190506117d260008301846117ae565b92915050565b6000819050919050565b6117eb816117d8565b82525050565b600060208201905061180660008301846117e2565b92915050565b6000604051905090565b600080fd5b600080fd5b611829816116e8565b811461183457600080fd5b50565b60008135905061184681611820565b92915050565b611855816117d8565b811461186057600080fd5b50565b6000813590506118728161184c565b92915050565b60008060006060848603121561189157611890611816565b5b600061189f86828701611837565b93505060206118b086828701611863565b92505060406118c186828701611863565b9150509250925092565b600081519050919050565b600082825260208201905092915050565b60005b838110156119055780820151818401526020810190506118ea565b60008484015250505050565b6000601f19601f8301169050919050565b600061192d826118cb565b61193781856118d6565b93506119478185602086016118e7565b61195081611911565b840191505092915050565b600060208201905081810360008301526119758184611922565b905092915050565b6000806040838503121561199457611993611816565b5b60006119a285828601611837565b92505060206119b385828601611863565b9150509250929050565b60008115159050919050565b6119d2816119bd565b82525050565b60006020820190506119ed60008301846119c9565b92915050565b600060208284031215611a0957611a08611816565b5b6000611a1784828501611837565b91505092915050565b600081519050919050565b600082825260208201905092915050565b6000819050602082019050919050565b611a55816117d8565b82525050565b6000611a678383611a4c565b60208301905092915050565b6000602082019050919050565b6000611a8b82611a20565b611a958185611a2b565b9350611aa083611a3c565b8060005b83811015611ad1578151611ab88882611a5b565b9750611ac383611a73565b925050600181019050611aa4565b5085935050505092915050565b60006020820190508181036000830152611af88184611a80565b905092915050565b608082016000820151611b1660008501826116fa565b506020820151611b2960208501826116fa565b506040820151611b3c6040850182611a4c565b506060820151611b4f6060850182611a4c565b50505050565b6000608082019050611b6a6000830184611b00565b92915050565b611b79816119bd565b8114611b8457600080fd5b50565b600081359050611b9681611b70565b92915050565b600060208284031215611bb257611bb1611816565b5b6000611bc084828501611b87565b91505092915050565b600060208284031215611bdf57611bde611816565b5b6000611bed84828501611863565b91505092915050565b6000606082019050611c0b60008301866117ae565b611c1860208301856117e2565b611c2560408301846117e2565b949350505050565b600081519050919050565b600081905092915050565b6000611c4e82611c2d565b611c588185611c38565b9350611c688185602086016118e7565b80840191505092915050565b6000611c808284611c43565b915081905092915050565b7f7472616e73616374696f6e206661696c65640000000000000000000000000000600082015250565b6000611cc16012836118d6565b9150611ccc82611c8b565b602082019050919050565b60006020820190508181036000830152611cf081611cb4565b9050919050565b600080fd5b600080fd5b7f4e487b7100000000000000000000000000000000000000000000000000000000600052604160045260246000fd5b611d3982611911565b810181811067ffffffffffffffff82111715611d5857611d57611d01565b5b80604052505050565b6000611d6b61180c565b9050611d778282611d30565b919050565b600067ffffffffffffffff821115611d9757611d96611d01565b5b611da082611911565b9050602081019050919050565b6000611dc0611dbb84611d7c565b611d61565b905082815260208101848484011115611ddc57611ddb611cfc565b5b611de78482856118e7565b509392505050565b600082601f830112611e0457611e03611cf7565b5b8151611e14848260208601611dad565b91505092915050565b600060208284031215611e3357611e32611816565b5b600082015167ffffffffffffffff811115611e5157611e5061181b565b5b611e5d84828501611def565b91505092915050565b6000604082019050611e7b60008301856117ae565b611e8860208301846117e2565b9392505050565b600060ff82169050919050565b7f4e487b7100000000000000000000000000000000000000000000000000000000600052601160045260246000fd5b6000611ed682611e8f565b9150611ee183611e8f565b9250828201905060ff811115611efa57611ef9611e9c565b5b92915050565b60007fffffffff0000000000000000000000000000000000000000000000000000000082169050919050565b611f3581611f00565b82525050565b6000602082019050611f506000830184611f2c565b92915050565b600081519050611f6581611b70565b92915050565b600060208284031215611f8157611f80611816565b5b6000611f8f84828501611f56565b91505092915050565b7f4e6f7420617574686f72697a656420746f20766f746500000000000000000000600082015250565b6000611fce6016836118d6565b9150611fd982611f98565b602082019050919050565b60006020820190508181036000830152611ffd81611fc1565b9050919050565b7f596f75206861766520616c726561647920766f746564206f6e2074686973207060008201527f726f706f73616c00000000000000000000000000000000000000000000000000602082015250565b60006120606027836118d6565b915061206b82612004565b604082019050919050565b6000602082019050818103600083015261208f81612053565b9050919050565b7f566f746572732068617665206e6f7420636f6d706c6574656420766f74696e67600082015250565b60006120cc6020836118d6565b91506120d782612096565b602082019050919050565b600060208201905081810360008301526120fb816120bf565b9050919050565b7f566f746572732068617665206e6f7420616772656564206f6e2074686520707260008201527f6f706f73616c0000000000000000000000000000000000000000000000000000602082015250565b600061215e6026836118d6565b915061216982612102565b604082019050919050565b6000602082019050818103600083015261218d81612151565b9050919050565b7f5265656e7472616e637947756172643a207265656e7472616e742063616c6c00600082015250565b60006121ca601f836118d6565b91506121d582612194565b602082019050919050565b600060208201905081810360008301526121f9816121bd565b905091905056fea2646970667358221220e5f4abd2449e241436ffd63f37585e7446e082e021b99ef6a575482d87e383a764736f6c63430008110033",
  "linkReferences": {},
  "deployedLinkReferences": {}
}