{
  "_format": "hh-sol-artifact-1",
  "contractName": "ARE_Proxy",
  "sourceName": "contracts/AREProxy.sol",
  "abi": [
    {
      "inputs": [
        {
          "internalType": "address",
          "name": "_implContract",
          "type": "address"
        },
        {
          "internalType": "address",
          "name": "address1",
          "type": "address"
        },
        {
          "internalType": "address",
          "name": "address2",
          "type": "address"
        }
      ],
      "stateMutability": "nonpayable",
      "type": "constructor"
    },
    {
      "inputs": [],
      "name": "NotOwner",
      "type": "error"
    },
    {
      "anonymous": false,
      "inputs": [
        {
          "indexed": true,
          "internalType": "address",
          "name": "marketowner",
          "type": "address"
        },
        {
          "indexed": true,
          "internalType": "address",
          "name": "newImplAddrs",
          "type": "address"
        }
      ],
      "name": "ImplUpgrade",
      "type": "event"
    },
    {
      "anonymous": false,
      "inputs": [
        {
          "indexed": true,
          "internalType": "address",
          "name": "owner",
          "type": "address"
        },
        {
          "indexed": true,
          "internalType": "address",
          "name": "user",
          "type": "address"
        },
        {
          "indexed": true,
          "internalType": "address",
          "name": "nftContract",
          "type": "address"
        },
        {
          "indexed": false,
          "internalType": "uint256",
          "name": "tokenId",
          "type": "uint256"
        },
        {
          "indexed": false,
          "internalType": "uint256",
          "name": "pricePerDay",
          "type": "uint256"
        },
        {
          "indexed": false,
          "internalType": "uint256",
          "name": "expires",
          "type": "uint256"
        }
      ],
      "name": "NFTListed",
      "type": "event"
    },
    {
      "anonymous": false,
      "inputs": [
        {
          "indexed": true,
          "internalType": "address",
          "name": "owner",
          "type": "address"
        },
        {
          "indexed": true,
          "internalType": "address",
          "name": "user",
          "type": "address"
        },
        {
          "indexed": true,
          "internalType": "address",
          "name": "nftContract",
          "type": "address"
        },
        {
          "indexed": false,
          "internalType": "uint256",
          "name": "tokenId",
          "type": "uint256"
        },
        {
          "indexed": false,
          "internalType": "uint64",
          "name": "expires",
          "type": "uint64"
        },
        {
          "indexed": false,
          "internalType": "uint256",
          "name": "rentalFee",
          "type": "uint256"
        }
      ],
      "name": "NFTRented",
      "type": "event"
    },
    {
      "anonymous": false,
      "inputs": [
        {
          "indexed": true,
          "internalType": "address",
          "name": "unlistSender",
          "type": "address"
        },
        {
          "indexed": true,
          "internalType": "address",
          "name": "nftContract",
          "type": "address"
        },
        {
          "indexed": true,
          "internalType": "uint256",
          "name": "tokenId",
          "type": "uint256"
        }
      ],
      "name": "NFTUnlisted",
      "type": "event"
    },
    {
      "inputs": [],
      "name": "calculateVotingResult",
      "outputs": [
        {
          "internalType": "uint256",
          "name": "",
          "type": "uint256"
        }
      ],
      "stateMutability": "view",
      "type": "function"
    },
    {
      "inputs": [
        {
          "internalType": "address",
          "name": "cAddress",
          "type": "address"
        }
      ],
      "name": "createVotingProposal",
      "outputs": [],
      "stateMutability": "nonpayable",
      "type": "function"
    },
    {
      "inputs": [
        {
          "internalType": "address",
          "name": "nftAddress",
          "type": "address"
        },
        {
          "internalType": "uint256",
          "name": "tokenId",
          "type": "uint256"
        }
      ],
      "name": "getARListing",
      "outputs": [
        {
          "components": [
            {
              "internalType": "address",
              "name": "owner",
              "type": "address"
            },
            {
              "internalType": "address",
              "name": "user",
              "type": "address"
            },
            {
              "internalType": "address",
              "name": "nftContract",
              "type": "address"
            },
            {
              "internalType": "uint256",
              "name": "tokenId",
              "type": "uint256"
            },
            {
              "internalType": "uint256",
              "name": "pricePerDay",
              "type": "uint256"
            },
            {
              "internalType": "uint256",
              "name": "expires",
              "type": "uint256"
            }
          ],
          "internalType": "struct ARE_Proxy.Listing_rent",
          "name": "",
          "type": "tuple"
        }
      ],
      "stateMutability": "view",
      "type": "function"
    },
    {
      "inputs": [],
      "name": "getImplAddrs",
      "outputs": [
        {
          "internalType": "address",
          "name": "",
          "type": "address"
        }
      ],
      "stateMutability": "view",
      "type": "function"
    },
    {
      "inputs": [],
      "name": "getListingFee",
      "outputs": [
        {
          "internalType": "uint256",
          "name": "",
          "type": "uint256"
        }
      ],
      "stateMutability": "view",
      "type": "function"
    },
    {
      "inputs": [
        {
          "internalType": "address",
          "name": "nftAddress",
          "type": "address"
        }
      ],
      "name": "getRListedAdddressTokens",
      "outputs": [
        {
          "internalType": "uint256[]",
          "name": "",
          "type": "uint256[]"
        }
      ],
      "stateMutability": "view",
      "type": "function"
    },
    {
      "inputs": [],
      "name": "getRListedAdddresses",
      "outputs": [
        {
          "internalType": "address[]",
          "name": "",
          "type": "address[]"
        }
      ],
      "stateMutability": "view",
      "type": "function"
    },
    {
      "inputs": [
        {
          "internalType": "address",
          "name": "nftContract",
          "type": "address"
        }
      ],
      "name": "isNFT",
      "outputs": [
        {
          "internalType": "bool",
          "name": "",
          "type": "bool"
        }
      ],
      "stateMutability": "view",
      "type": "function"
    },
    {
      "inputs": [
        {
          "internalType": "address",
          "name": "nftContract",
          "type": "address"
        }
      ],
      "name": "isRentableNFT",
      "outputs": [
        {
          "internalType": "bool",
          "name": "",
          "type": "bool"
        }
      ],
      "stateMutability": "view",
      "type": "function"
    },
    {
      "inputs": [
        {
          "internalType": "address",
          "name": "nftAddress",
          "type": "address"
        },
        {
          "internalType": "uint256",
          "name": "tokenId",
          "type": "uint256"
        },
        {
          "internalType": "uint256",
          "name": "pricePerDay",
          "type": "uint256"
        }
      ],
      "name": "listNFT",
      "outputs": [
        {
          "internalType": "string",
          "name": "",
          "type": "string"
        }
      ],
      "stateMutability": "payable",
      "type": "function"
    },
    {
      "inputs": [
        {
          "internalType": "address",
          "name": "nftAddress",
          "type": "address"
        },
        {
          "internalType": "uint256",
          "name": "tokenId",
          "type": "uint256"
        },
        {
          "internalType": "uint64",
          "name": "numDays",
          "type": "uint64"
        }
      ],
      "name": "rentNFT",
      "outputs": [
        {
          "internalType": "string",
          "name": "",
          "type": "string"
        }
      ],
      "stateMutability": "payable",
      "type": "function"
    },
    {
      "inputs": [
        {
          "internalType": "address",
          "name": "nftAddress",
          "type": "address"
        },
        {
          "internalType": "uint256",
          "name": "tokenId",
          "type": "uint256"
        }
      ],
      "name": "unlistNFT",
      "outputs": [
        {
          "internalType": "string",
          "name": "",
          "type": "string"
        }
      ],
      "stateMutability": "payable",
      "type": "function"
    },
    {
      "inputs": [],
      "name": "updateImplContract",
      "outputs": [],
      "stateMutability": "nonpayable",
      "type": "function"
    },
    {
      "inputs": [
        {
          "internalType": "address",
          "name": "nftAddress",
          "type": "address"
        },
        {
          "internalType": "uint256",
          "name": "tokenId",
          "type": "uint256"
        },
        {
          "internalType": "uint256",
          "name": "pricePerDay",
          "type": "uint256"
        }
      ],
      "name": "updateNFT",
      "outputs": [
        {
          "internalType": "string",
          "name": "",
          "type": "string"
        }
      ],
      "stateMutability": "nonpayable",
      "type": "function"
    },
    {
      "inputs": [
        {
          "internalType": "bool",
          "name": "supportChanges",
          "type": "bool"
        }
      ],
      "name": "voteOnProposal",
      "outputs": [],
      "stateMutability": "nonpayable",
      "type": "function"
    }
  ],
  "bytecode": "0x6080604052662386f26fc10000600255600a600360006101000a81548167ffffffffffffffff021916908367ffffffffffffffff1602179055503480156200004657600080fd5b50604051620025a2380380620025a283398181016040528101906200006c9190620001eb565b600160008190555033600160006101000a81548173ffffffffffffffffffffffffffffffffffffffff021916908373ffffffffffffffffffffffffffffffffffffffff16021790555082600960006101000a81548173ffffffffffffffffffffffffffffffffffffffff021916908373ffffffffffffffffffffffffffffffffffffffff16021790555081600d60006101000a81548173ffffffffffffffffffffffffffffffffffffffff021916908373ffffffffffffffffffffffffffffffffffffffff16021790555080600e60006101000a81548173ffffffffffffffffffffffffffffffffffffffff021916908373ffffffffffffffffffffffffffffffffffffffff16021790555050505062000247565b600080fd5b600073ffffffffffffffffffffffffffffffffffffffff82169050919050565b6000620001b38262000186565b9050919050565b620001c581620001a6565b8114620001d157600080fd5b50565b600081519050620001e581620001ba565b92915050565b60008060006060848603121562000207576200020662000181565b5b60006200021786828701620001d4565b93505060206200022a86828701620001d4565b92505060406200023d86828701620001d4565b9150509250925092565b61234b80620002576000396000f3fe6080604052600436106100e85760003560e01c8063b31b85c91161008a578063e9a6f4f611610059578063e9a6f4f614610309578063f5fa4d4714610346578063f8e97ef91461035d578063f9b8ed2514610386576100e8565b8063b31b85c91461024d578063b8fe6abe1461028a578063c53dd022146102b5578063e3ccb809146102e0576100e8565b80637fc27efd116100c65780637fc27efd1461019257806395046b7c146101c25780639a34f003146101ed578063ad05f1b41461021d576100e8565b80631578e7c8146100ed578063555df3cd1461012a5780636ae012c814610167575b600080fd5b3480156100f957600080fd5b50610114600480360381019061010f9190611703565b6103c3565b60405161012191906117dc565b60405180910390f35b34801561013657600080fd5b50610151600480360381019061014c91906117f7565b61054e565b60405161015e91906118d3565b60405180910390f35b34801561017357600080fd5b5061017c6105a4565b6040516101899190611904565b60405180910390f35b6101ac60048036038101906101a79190611703565b6105ce565b6040516101b991906119af565b60405180910390f35b3480156101ce57600080fd5b506101d761074c565b6040516101e49190611a80565b60405180910390f35b61020760048036038101906102029190611ae2565b610763565b60405161021491906119af565b60405180910390f35b61023760048036038101906102329190611b35565b6108e4565b60405161024491906119af565b60405180910390f35b34801561025957600080fd5b50610274600480360381019061026f91906117f7565b610a65565b6040516102819190611ba3565b60405180910390f35b34801561029657600080fd5b5061029f610b1b565b6040516102ac9190611bcd565b60405180910390f35b3480156102c157600080fd5b506102ca610b25565b6040516102d79190611bcd565b60405180910390f35b3480156102ec57600080fd5b5061030760048036038101906103029190611c14565b610bad565b005b34801561031557600080fd5b50610330600480360381019061032b91906117f7565b610ec2565b60405161033d9190611ba3565b60405180910390f35b34801561035257600080fd5b5061035b61102b565b005b34801561036957600080fd5b50610384600480360381019061037f91906117f7565b611285565b005b34801561039257600080fd5b506103ad60048036038101906103a89190611b35565b61136b565b6040516103ba91906119af565b60405180910390f35b6103cb6115e3565b600460008473ffffffffffffffffffffffffffffffffffffffff1673ffffffffffffffffffffffffffffffffffffffff16815260200190815260200160002060008381526020019081526020016000206040518060c00160405290816000820160009054906101000a900473ffffffffffffffffffffffffffffffffffffffff1673ffffffffffffffffffffffffffffffffffffffff1673ffffffffffffffffffffffffffffffffffffffff1681526020016001820160009054906101000a900473ffffffffffffffffffffffffffffffffffffffff1673ffffffffffffffffffffffffffffffffffffffff1673ffffffffffffffffffffffffffffffffffffffff1681526020016002820160009054906101000a900473ffffffffffffffffffffffffffffffffffffffff1673ffffffffffffffffffffffffffffffffffffffff1673ffffffffffffffffffffffffffffffffffffffff1681526020016003820154815260200160048201548152602001600582015481525050905092915050565b60606000610599600560008573ffffffffffffffffffffffffffffffffffffffff1673ffffffffffffffffffffffffffffffffffffffff1681526020019081526020016000206114ec565b905080915050919050565b6000600960009054906101000a900473ffffffffffffffffffffffffffffffffffffffff16905090565b6060600080600960009054906101000a900473ffffffffffffffffffffffffffffffffffffffff1673ffffffffffffffffffffffffffffffffffffffff16858560405160240161061f929190611c41565b6040516020818303038152906040527f7fc27efd000000000000000000000000000000000000000000000000000000007bffffffffffffffffffffffffffffffffffffffffffffffffffffffff19166020820180517bffffffffffffffffffffffffffffffffffffffffffffffffffffffff83818316178352505050506040516106a99190611cb1565b600060405180830381855af49150503d80600081146106e4576040519150601f19603f3d011682016040523d82523d6000602084013e6106e9565b606091505b50915091508161072e576040517f08c379a000000000000000000000000000000000000000000000000000000000815260040161072590611d14565b60405180910390fd5b808060200190518101906107429190611e5a565b9250505092915050565b6060600061075a600661150d565b90508091505090565b6060600080600960009054906101000a900473ffffffffffffffffffffffffffffffffffffffff1673ffffffffffffffffffffffffffffffffffffffff168686866040516024016107b693929190611eb2565b6040516020818303038152906040527f9a34f003000000000000000000000000000000000000000000000000000000007bffffffffffffffffffffffffffffffffffffffffffffffffffffffff19166020820180517bffffffffffffffffffffffffffffffffffffffffffffffffffffffff83818316178352505050506040516108409190611cb1565b600060405180830381855af49150503d806000811461087b576040519150601f19603f3d011682016040523d82523d6000602084013e610880565b606091505b5091509150816108c5576040517f08c379a00000000000000000000000000000000000000000000000000000000081526004016108bc90611d14565b60405180910390fd5b808060200190518101906108d99190611e5a565b925050509392505050565b6060600080600960009054906101000a900473ffffffffffffffffffffffffffffffffffffffff1673ffffffffffffffffffffffffffffffffffffffff1686868660405160240161093793929190611ee9565b6040516020818303038152906040527fad05f1b4000000000000000000000000000000000000000000000000000000007bffffffffffffffffffffffffffffffffffffffffffffffffffffffff19166020820180517bffffffffffffffffffffffffffffffffffffffffffffffffffffffff83818316178352505050506040516109c19190611cb1565b600060405180830381855af49150503d80600081146109fc576040519150601f19603f3d011682016040523d82523d6000602084013e610a01565b606091505b509150915081610a46576040517f08c379a0000000000000000000000000000000000000000000000000000000008152600401610a3d90611d14565b60405180910390fd5b80806020019051810190610a5a9190611e5a565b925050509392505050565b600080600090508273ffffffffffffffffffffffffffffffffffffffff166301ffc9a77f80ac58cd000000000000000000000000000000000000000000000000000000006040518263ffffffff1660e01b8152600401610ac59190611f5b565b602060405180830381865afa925050508015610aff57506040513d601f19601f82011682018060405250810190610afc9190611f8b565b60015b610b0d576000915050610b16565b80915050809150505b919050565b6000600254905090565b600080600a60020154600a60010154610b3e9190611fe7565b905060008103610b52576000915050610baa565b6001600a60010154148015610b6c57506001600a60020154145b15610b7b576000915050610baa565b6002600a60010154148015610b9557506002600a60020154145b15610ba4576002915050610baa565b60019150505b90565b600d60009054906101000a900473ffffffffffffffffffffffffffffffffffffffff1673ffffffffffffffffffffffffffffffffffffffff163373ffffffffffffffffffffffffffffffffffffffff1603610c4b576000600a6001015414610c4a576040517f08c379a0000000000000000000000000000000000000000000000000000000008152600401610c419061208d565b60405180910390fd5b5b600e60009054906101000a900473ffffffffffffffffffffffffffffffffffffffff1673ffffffffffffffffffffffffffffffffffffffff163373ffffffffffffffffffffffffffffffffffffffff1603610ce9576000600a6002015414610ce8576040517f08c379a0000000000000000000000000000000000000000000000000000000008152600401610cdf9061208d565b60405180910390fd5b5b600d60009054906101000a900473ffffffffffffffffffffffffffffffffffffffff1673ffffffffffffffffffffffffffffffffffffffff163373ffffffffffffffffffffffffffffffffffffffff161480610d925750600e60009054906101000a900473ffffffffffffffffffffffffffffffffffffffff1673ffffffffffffffffffffffffffffffffffffffff163373ffffffffffffffffffffffffffffffffffffffff16145b610dd1576040517f08c379a0000000000000000000000000000000000000000000000000000000008152600401610dc8906120f9565b60405180910390fd5b8015610e4d57600d60009054906101000a900473ffffffffffffffffffffffffffffffffffffffff1673ffffffffffffffffffffffffffffffffffffffff163373ffffffffffffffffffffffffffffffffffffffff1603610e3c576002600a60010181905550610e48565b6002600a600201819055505b610ebf565b600d60009054906101000a900473ffffffffffffffffffffffffffffffffffffffff1673ffffffffffffffffffffffffffffffffffffffff163373ffffffffffffffffffffffffffffffffffffffff1603610eb2576001600a60010181905550610ebe565b6001600a600201819055505b5b50565b6000806000905060008373ffffffffffffffffffffffffffffffffffffffff166301ffc9a77fad092b5c000000000000000000000000000000000000000000000000000000006040518263ffffffff1660e01b8152600401610f249190611f5b565b602060405180830381865afa925050508015610f5e57506040513d601f19601f82011682018060405250810190610f5b9190611f8b565b60015b610f6d57600092505050611026565b809250508373ffffffffffffffffffffffffffffffffffffffff166301ffc9a77f80ac58cd000000000000000000000000000000000000000000000000000000006040518263ffffffff1660e01b8152600401610fca9190611f5b565b602060405180830381865afa92505050801561100457506040513d601f19601f820116820180604052508101906110019190611f8b565b60015b61101357600092505050611026565b809150508180156110215750805b925050505b919050565b61103361152e565b600160009054906101000a900473ffffffffffffffffffffffffffffffffffffffff1673ffffffffffffffffffffffffffffffffffffffff163373ffffffffffffffffffffffffffffffffffffffff16146110c3576040517f08c379a00000000000000000000000000000000000000000000000000000000081526004016110ba9061218b565b60405180910390fd5b6000600a60010154141580156110df57506000600a6002015414155b61111e576040517f08c379a0000000000000000000000000000000000000000000000000000000008152600401611115906121f7565b60405180910390fd5b6002600a6001015414801561113857506002600a60020154145b611177576040517f08c379a000000000000000000000000000000000000000000000000000000000815260040161116e90612289565b60405180910390fd5b600a60000160009054906101000a900473ffffffffffffffffffffffffffffffffffffffff16600960006101000a81548173ffffffffffffffffffffffffffffffffffffffff021916908373ffffffffffffffffffffffffffffffffffffffff160217905550600960009054906101000a900473ffffffffffffffffffffffffffffffffffffffff1673ffffffffffffffffffffffffffffffffffffffff16600160009054906101000a900473ffffffffffffffffffffffffffffffffffffffff1673ffffffffffffffffffffffffffffffffffffffff167f1ed34c9a7b236ee6031785cd9ca32de930e1ae39020c1279886b687a307e7fcb60405160405180910390a361128361157d565b565b338073ffffffffffffffffffffffffffffffffffffffff16600160009054906101000a900473ffffffffffffffffffffffffffffffffffffffff1673ffffffffffffffffffffffffffffffffffffffff161461130d576040517f30cd747100000000000000000000000000000000000000000000000000000000815260040160405180910390fd5b81600a60000160006101000a81548173ffffffffffffffffffffffffffffffffffffffff021916908373ffffffffffffffffffffffffffffffffffffffff1602179055506000600a600101819055506000600a600201819055505050565b6060600080600960009054906101000a900473ffffffffffffffffffffffffffffffffffffffff1673ffffffffffffffffffffffffffffffffffffffff168686866040516024016113be93929190611ee9565b6040516020818303038152906040527f979bcbb2000000000000000000000000000000000000000000000000000000007bffffffffffffffffffffffffffffffffffffffffffffffffffffffff19166020820180517bffffffffffffffffffffffffffffffffffffffffffffffffffffffff83818316178352505050506040516114489190611cb1565b600060405180830381855af49150503d8060008114611483576040519150601f19603f3d011682016040523d82523d6000602084013e611488565b606091505b5091509150816114cd576040517f08c379a00000000000000000000000000000000000000000000000000000000081526004016114c490611d14565b60405180910390fd5b808060200190518101906114e19190611e5a565b925050509392505050565b606060006114fc83600001611587565b905060608190508092505050919050565b6060600061151d83600001611587565b905060608190508092505050919050565b600260005403611573576040517f08c379a000000000000000000000000000000000000000000000000000000000815260040161156a906122f5565b60405180910390fd5b6002600081905550565b6001600081905550565b6060816000018054806020026020016040519081016040528092919081815260200182805480156115d757602002820191906000526020600020905b8154815260200190600101908083116115c3575b50505050509050919050565b6040518060c00160405280600073ffffffffffffffffffffffffffffffffffffffff168152602001600073ffffffffffffffffffffffffffffffffffffffff168152602001600073ffffffffffffffffffffffffffffffffffffffff1681526020016000815260200160008152602001600081525090565b6000604051905090565b600080fd5b600080fd5b600073ffffffffffffffffffffffffffffffffffffffff82169050919050565b600061169a8261166f565b9050919050565b6116aa8161168f565b81146116b557600080fd5b50565b6000813590506116c7816116a1565b92915050565b6000819050919050565b6116e0816116cd565b81146116eb57600080fd5b50565b6000813590506116fd816116d7565b92915050565b6000806040838503121561171a57611719611665565b5b6000611728858286016116b8565b9250506020611739858286016116ee565b9150509250929050565b61174c8161168f565b82525050565b61175b816116cd565b82525050565b60c0820160008201516117776000850182611743565b50602082015161178a6020850182611743565b50604082015161179d6040850182611743565b5060608201516117b06060850182611752565b5060808201516117c36080850182611752565b5060a08201516117d660a0850182611752565b50505050565b600060c0820190506117f16000830184611761565b92915050565b60006020828403121561180d5761180c611665565b5b600061181b848285016116b8565b91505092915050565b600081519050919050565b600082825260208201905092915050565b6000819050602082019050919050565b600061185c8383611752565b60208301905092915050565b6000602082019050919050565b600061188082611824565b61188a818561182f565b935061189583611840565b8060005b838110156118c65781516118ad8882611850565b97506118b883611868565b925050600181019050611899565b5085935050505092915050565b600060208201905081810360008301526118ed8184611875565b905092915050565b6118fe8161168f565b82525050565b600060208201905061191960008301846118f5565b92915050565b600081519050919050565b600082825260208201905092915050565b60005b8381101561195957808201518184015260208101905061193e565b60008484015250505050565b6000601f19601f8301169050919050565b60006119818261191f565b61198b818561192a565b935061199b81856020860161193b565b6119a481611965565b840191505092915050565b600060208201905081810360008301526119c98184611976565b905092915050565b600081519050919050565b600082825260208201905092915050565b6000819050602082019050919050565b6000611a098383611743565b60208301905092915050565b6000602082019050919050565b6000611a2d826119d1565b611a3781856119dc565b9350611a42836119ed565b8060005b83811015611a73578151611a5a88826119fd565b9750611a6583611a15565b925050600181019050611a46565b5085935050505092915050565b60006020820190508181036000830152611a9a8184611a22565b905092915050565b600067ffffffffffffffff82169050919050565b611abf81611aa2565b8114611aca57600080fd5b50565b600081359050611adc81611ab6565b92915050565b600080600060608486031215611afb57611afa611665565b5b6000611b09868287016116b8565b9350506020611b1a868287016116ee565b9250506040611b2b86828701611acd565b9150509250925092565b600080600060608486031215611b4e57611b4d611665565b5b6000611b5c868287016116b8565b9350506020611b6d868287016116ee565b9250506040611b7e868287016116ee565b9150509250925092565b60008115159050919050565b611b9d81611b88565b82525050565b6000602082019050611bb86000830184611b94565b92915050565b611bc7816116cd565b82525050565b6000602082019050611be26000830184611bbe565b92915050565b611bf181611b88565b8114611bfc57600080fd5b50565b600081359050611c0e81611be8565b92915050565b600060208284031215611c2a57611c29611665565b5b6000611c3884828501611bff565b91505092915050565b6000604082019050611c5660008301856118f5565b611c636020830184611bbe565b9392505050565b600081519050919050565b600081905092915050565b6000611c8b82611c6a565b611c958185611c75565b9350611ca581856020860161193b565b80840191505092915050565b6000611cbd8284611c80565b915081905092915050565b7f7472616e73616374696f6e206661696c65640000000000000000000000000000600082015250565b6000611cfe60128361192a565b9150611d0982611cc8565b602082019050919050565b60006020820190508181036000830152611d2d81611cf1565b9050919050565b600080fd5b600080fd5b7f4e487b7100000000000000000000000000000000000000000000000000000000600052604160045260246000fd5b611d7682611965565b810181811067ffffffffffffffff82111715611d9557611d94611d3e565b5b80604052505050565b6000611da861165b565b9050611db48282611d6d565b919050565b600067ffffffffffffffff821115611dd457611dd3611d3e565b5b611ddd82611965565b9050602081019050919050565b6000611dfd611df884611db9565b611d9e565b905082815260208101848484011115611e1957611e18611d39565b5b611e2484828561193b565b509392505050565b600082601f830112611e4157611e40611d34565b5b8151611e51848260208601611dea565b91505092915050565b600060208284031215611e7057611e6f611665565b5b600082015167ffffffffffffffff811115611e8e57611e8d61166a565b5b611e9a84828501611e2c565b91505092915050565b611eac81611aa2565b82525050565b6000606082019050611ec760008301866118f5565b611ed46020830185611bbe565b611ee16040830184611ea3565b949350505050565b6000606082019050611efe60008301866118f5565b611f0b6020830185611bbe565b611f186040830184611bbe565b949350505050565b60007fffffffff0000000000000000000000000000000000000000000000000000000082169050919050565b611f5581611f20565b82525050565b6000602082019050611f706000830184611f4c565b92915050565b600081519050611f8581611be8565b92915050565b600060208284031215611fa157611fa0611665565b5b6000611faf84828501611f76565b91505092915050565b7f4e487b7100000000000000000000000000000000000000000000000000000000600052601160045260246000fd5b6000611ff2826116cd565b9150611ffd836116cd565b925082820190508082111561201557612014611fb8565b5b92915050565b7f596f75206861766520616c726561647920766f746564206f6e2074686973207060008201527f726f706f73616c00000000000000000000000000000000000000000000000000602082015250565b600061207760278361192a565b91506120828261201b565b604082019050919050565b600060208201905081810360008301526120a68161206a565b9050919050565b7f4e6f7420617574686f72697a656420746f20766f746500000000000000000000600082015250565b60006120e360168361192a565b91506120ee826120ad565b602082019050919050565b60006020820190508181036000830152612112816120d6565b9050919050565b7f6d61726b6574706c6163652063616e206f6e6c7920626520757067726164656460008201527f20627920746865206f776e657200000000000000000000000000000000000000602082015250565b6000612175602d8361192a565b915061218082612119565b604082019050919050565b600060208201905081810360008301526121a481612168565b9050919050565b7f566f746572732068617665206e6f7420636f6d706c6574656420766f74696e67600082015250565b60006121e160208361192a565b91506121ec826121ab565b602082019050919050565b60006020820190508181036000830152612210816121d4565b9050919050565b7f566f746572732068617665206e6f7420616772656564206f6e2074686520707260008201527f6f706f73616c0000000000000000000000000000000000000000000000000000602082015250565b600061227360268361192a565b915061227e82612217565b604082019050919050565b600060208201905081810360008301526122a281612266565b9050919050565b7f5265656e7472616e637947756172643a207265656e7472616e742063616c6c00600082015250565b60006122df601f8361192a565b91506122ea826122a9565b602082019050919050565b6000602082019050818103600083015261230e816122d2565b905091905056fea2646970667358221220bd9132b1830d563ce031ff2a1a60654ce42c6197e90e47bb7a582022831f3e4364736f6c63430008110033",
  "linkReferences": {},
  "deployedLinkReferences": {}
}