{
  "_format": "hh-sol-artifact-1",
  "contractName": "AIE_Proxy",
  "sourceName": "contracts/AIEProxy.sol",
  "abi": [
    {
      "inputs": [
        {
          "internalType": "address",
          "name": "_implContract",
          "type": "address"
        },
        {
          "internalType": "address",
          "name": "address1",
          "type": "address"
        },
        {
          "internalType": "address",
          "name": "address2",
          "type": "address"
        }
      ],
      "stateMutability": "nonpayable",
      "type": "constructor"
    },
    {
      "inputs": [],
      "name": "NotOwner",
      "type": "error"
    },
    {
      "anonymous": false,
      "inputs": [
        {
          "indexed": true,
          "internalType": "address",
          "name": "owner",
          "type": "address"
        },
        {
          "indexed": true,
          "internalType": "address",
          "name": "user",
          "type": "address"
        },
        {
          "indexed": true,
          "internalType": "address",
          "name": "nftContract",
          "type": "address"
        },
        {
          "indexed": false,
          "internalType": "uint256",
          "name": "tokenId",
          "type": "uint256"
        },
        {
          "indexed": false,
          "internalType": "uint256",
          "name": "pricePerDay",
          "type": "uint256"
        }
      ],
      "name": "INSNFTListed",
      "type": "event"
    },
    {
      "anonymous": false,
      "inputs": [
        {
          "indexed": true,
          "internalType": "address",
          "name": "marketowner",
          "type": "address"
        },
        {
          "indexed": true,
          "internalType": "address",
          "name": "newImplAddrs",
          "type": "address"
        }
      ],
      "name": "ImplUpgrade",
      "type": "event"
    },
    {
      "anonymous": false,
      "inputs": [
        {
          "indexed": true,
          "internalType": "address",
          "name": "owner",
          "type": "address"
        },
        {
          "indexed": true,
          "internalType": "address",
          "name": "user",
          "type": "address"
        },
        {
          "indexed": true,
          "internalType": "address",
          "name": "nftContract",
          "type": "address"
        },
        {
          "indexed": false,
          "internalType": "uint256",
          "name": "tokenId",
          "type": "uint256"
        },
        {
          "indexed": false,
          "internalType": "uint64",
          "name": "expires",
          "type": "uint64"
        },
        {
          "indexed": false,
          "internalType": "uint64",
          "name": "insCount",
          "type": "uint64"
        },
        {
          "indexed": false,
          "internalType": "uint64",
          "name": "insIndex",
          "type": "uint64"
        },
        {
          "indexed": false,
          "internalType": "uint256",
          "name": "insAmount",
          "type": "uint256"
        },
        {
          "indexed": false,
          "internalType": "uint256",
          "name": "totalPaid",
          "type": "uint256"
        }
      ],
      "name": "NFTINSPaid",
      "type": "event"
    },
    {
      "anonymous": false,
      "inputs": [
        {
          "indexed": true,
          "internalType": "address",
          "name": "unlistSender",
          "type": "address"
        },
        {
          "indexed": true,
          "internalType": "address",
          "name": "nftContract",
          "type": "address"
        },
        {
          "indexed": true,
          "internalType": "uint256",
          "name": "tokenId",
          "type": "uint256"
        }
      ],
      "name": "NFTUnlisted",
      "type": "event"
    },
    {
      "inputs": [],
      "name": "calculateVotingResult",
      "outputs": [
        {
          "internalType": "uint256",
          "name": "",
          "type": "uint256"
        }
      ],
      "stateMutability": "view",
      "type": "function"
    },
    {
      "inputs": [
        {
          "internalType": "address",
          "name": "cAddress",
          "type": "address"
        }
      ],
      "name": "createVotingProposal",
      "outputs": [],
      "stateMutability": "nonpayable",
      "type": "function"
    },
    {
      "inputs": [
        {
          "internalType": "address",
          "name": "nftAddress",
          "type": "address"
        },
        {
          "internalType": "uint256",
          "name": "tokenId",
          "type": "uint256"
        }
      ],
      "name": "getAInsListing",
      "outputs": [
        {
          "components": [
            {
              "internalType": "address",
              "name": "owner",
              "type": "address"
            },
            {
              "internalType": "address",
              "name": "user",
              "type": "address"
            },
            {
              "internalType": "address",
              "name": "nftContract",
              "type": "address"
            },
            {
              "internalType": "uint256",
              "name": "tokenId",
              "type": "uint256"
            },
            {
              "internalType": "uint256",
              "name": "pricePerDay",
              "type": "uint256"
            },
            {
              "internalType": "uint64",
              "name": "installmentCount",
              "type": "uint64"
            },
            {
              "internalType": "uint64",
              "name": "expires",
              "type": "uint64"
            },
            {
              "internalType": "uint64",
              "name": "installmentIndex",
              "type": "uint64"
            },
            {
              "internalType": "uint256",
              "name": "paidIns",
              "type": "uint256"
            }
          ],
          "internalType": "struct AIE_Proxy.Listing_installment",
          "name": "",
          "type": "tuple"
        }
      ],
      "stateMutability": "view",
      "type": "function"
    },
    {
      "inputs": [],
      "name": "getImplAddrs",
      "outputs": [
        {
          "internalType": "address",
          "name": "",
          "type": "address"
        }
      ],
      "stateMutability": "view",
      "type": "function"
    },
    {
      "inputs": [
        {
          "internalType": "address",
          "name": "nftAddress",
          "type": "address"
        }
      ],
      "name": "getInsListedAdddressTokens",
      "outputs": [
        {
          "internalType": "uint256[]",
          "name": "",
          "type": "uint256[]"
        }
      ],
      "stateMutability": "view",
      "type": "function"
    },
    {
      "inputs": [],
      "name": "getInsListedAdddresses",
      "outputs": [
        {
          "internalType": "address[]",
          "name": "",
          "type": "address[]"
        }
      ],
      "stateMutability": "view",
      "type": "function"
    },
    {
      "inputs": [],
      "name": "getListingFee",
      "outputs": [
        {
          "internalType": "uint256",
          "name": "",
          "type": "uint256"
        }
      ],
      "stateMutability": "view",
      "type": "function"
    },
    {
      "inputs": [
        {
          "internalType": "address",
          "name": "nftAddress",
          "type": "address"
        },
        {
          "internalType": "uint256",
          "name": "tokenId",
          "type": "uint256"
        },
        {
          "internalType": "uint64",
          "name": "installmentCount",
          "type": "uint64"
        }
      ],
      "name": "getNftInstallment",
      "outputs": [
        {
          "internalType": "uint256",
          "name": "",
          "type": "uint256"
        }
      ],
      "stateMutability": "view",
      "type": "function"
    },
    {
      "inputs": [
        {
          "internalType": "address",
          "name": "nftContract",
          "type": "address"
        }
      ],
      "name": "isNFT",
      "outputs": [
        {
          "internalType": "bool",
          "name": "",
          "type": "bool"
        }
      ],
      "stateMutability": "view",
      "type": "function"
    },
    {
      "inputs": [
        {
          "internalType": "address",
          "name": "nftContract",
          "type": "address"
        }
      ],
      "name": "isRentableNFT",
      "outputs": [
        {
          "internalType": "bool",
          "name": "",
          "type": "bool"
        }
      ],
      "stateMutability": "view",
      "type": "function"
    },
    {
      "inputs": [
        {
          "internalType": "address",
          "name": "nftAddress",
          "type": "address"
        },
        {
          "internalType": "uint256",
          "name": "tokenId",
          "type": "uint256"
        },
        {
          "internalType": "uint256",
          "name": "pricePerDay",
          "type": "uint256"
        }
      ],
      "name": "listInsBasedNFT",
      "outputs": [
        {
          "internalType": "string",
          "name": "",
          "type": "string"
        }
      ],
      "stateMutability": "payable",
      "type": "function"
    },
    {
      "inputs": [
        {
          "internalType": "address",
          "name": "nftAddress",
          "type": "address"
        },
        {
          "internalType": "uint256",
          "name": "tokenId",
          "type": "uint256"
        }
      ],
      "name": "payNFTIns",
      "outputs": [
        {
          "internalType": "string",
          "name": "",
          "type": "string"
        }
      ],
      "stateMutability": "payable",
      "type": "function"
    },
    {
      "inputs": [
        {
          "internalType": "address",
          "name": "nftAddress",
          "type": "address"
        },
        {
          "internalType": "uint256",
          "name": "tokenId",
          "type": "uint256"
        },
        {
          "internalType": "uint64",
          "name": "numDays",
          "type": "uint64"
        }
      ],
      "name": "rentINSNFT",
      "outputs": [
        {
          "internalType": "string",
          "name": "",
          "type": "string"
        }
      ],
      "stateMutability": "payable",
      "type": "function"
    },
    {
      "inputs": [
        {
          "internalType": "address",
          "name": "nftAddress",
          "type": "address"
        },
        {
          "internalType": "uint256",
          "name": "tokenId",
          "type": "uint256"
        }
      ],
      "name": "unlistINSNFT",
      "outputs": [
        {
          "internalType": "string",
          "name": "",
          "type": "string"
        }
      ],
      "stateMutability": "nonpayable",
      "type": "function"
    },
    {
      "inputs": [],
      "name": "updateImplContract",
      "outputs": [],
      "stateMutability": "nonpayable",
      "type": "function"
    },
    {
      "inputs": [
        {
          "internalType": "bool",
          "name": "supportChanges",
          "type": "bool"
        }
      ],
      "name": "voteOnProposal",
      "outputs": [],
      "stateMutability": "nonpayable",
      "type": "function"
    }
  ],
  "bytecode": "0x6080604052662386f26fc10000600255600a600360006101000a81548167ffffffffffffffff021916908367ffffffffffffffff1602179055503480156200004657600080fd5b5060405162002cdf38038062002cdf83398181016040528101906200006c9190620001eb565b600160008190555033600160006101000a81548173ffffffffffffffffffffffffffffffffffffffff021916908373ffffffffffffffffffffffffffffffffffffffff16021790555082600960006101000a81548173ffffffffffffffffffffffffffffffffffffffff021916908373ffffffffffffffffffffffffffffffffffffffff16021790555081600d60006101000a81548173ffffffffffffffffffffffffffffffffffffffff021916908373ffffffffffffffffffffffffffffffffffffffff16021790555080600e60006101000a81548173ffffffffffffffffffffffffffffffffffffffff021916908373ffffffffffffffffffffffffffffffffffffffff16021790555050505062000247565b600080fd5b600073ffffffffffffffffffffffffffffffffffffffff82169050919050565b6000620001b38262000186565b9050919050565b620001c581620001a6565b8114620001d157600080fd5b50565b600081519050620001e581620001ba565b92915050565b60008060006060848603121562000207576200020662000181565b5b60006200021786828701620001d4565b93505060206200022a86828701620001d4565b92505060406200023d86828701620001d4565b9150509250925092565b612a8880620002576000396000f3fe6080604052600436106100f35760003560e01c8063c53dd0221161008a578063e3ccb80911610059578063e3ccb80914610365578063e9a6f4f61461038e578063f5fa4d47146103cb578063f8e97ef9146103e2576100f3565b8063c53dd0221461029d578063c80e712f146102c8578063cebd5145146102f8578063d4a55a7414610328576100f3565b80636bf510bf116100c65780636bf510bf146101bb57806393f33249146101f8578063b31b85c914610235578063b8fe6abe14610272576100f3565b80632f4a073a146100f857806337feab07146101355780634b30261c146101605780636ae012c814610190575b600080fd5b34801561010457600080fd5b5061011f600480360381019061011a9190611b45565b61040b565b60405161012c9190611c3a565b60405180910390f35b34801561014157600080fd5b5061014a610461565b6040516101579190611d1a565b60405180910390f35b61017a60048036038101906101759190611d68565b610478565b6040516101879190611e38565b60405180910390f35b34801561019c57600080fd5b506101a56105f6565b6040516101b29190611e69565b60405180910390f35b3480156101c757600080fd5b506101e260048036038101906101dd9190611d68565b610620565b6040516101ef9190611e38565b60405180910390f35b34801561020457600080fd5b5061021f600480360381019061021a9190611ec4565b61079e565b60405161022c9190611f26565b60405180910390f35b34801561024157600080fd5b5061025c60048036038101906102579190611b45565b610b06565b6040516102699190611f5c565b60405180910390f35b34801561027e57600080fd5b50610287610bbc565b6040516102949190611f26565b60405180910390f35b3480156102a957600080fd5b506102b2610bc6565b6040516102bf9190611f26565b60405180910390f35b6102e260048036038101906102dd9190611f77565b610c4e565b6040516102ef9190611e38565b60405180910390f35b610312600480360381019061030d9190611ec4565b610dcf565b60405161031f9190611e38565b60405180910390f35b34801561033457600080fd5b5061034f600480360381019061034a9190611d68565b610f50565b60405161035c9190612090565b60405180910390f35b34801561037157600080fd5b5061038c600480360381019061038791906120d8565b611172565b005b34801561039a57600080fd5b506103b560048036038101906103b09190611b45565b611487565b6040516103c29190611f5c565b60405180910390f35b3480156103d757600080fd5b506103e06115f0565b005b3480156103ee57600080fd5b5061040960048036038101906104049190611b45565b61184a565b005b60606000610456600560008573ffffffffffffffffffffffffffffffffffffffff1673ffffffffffffffffffffffffffffffffffffffff168152602001908152602001600020611930565b905080915050919050565b6060600061046f6006611951565b90508091505090565b6060600080600960009054906101000a900473ffffffffffffffffffffffffffffffffffffffff1673ffffffffffffffffffffffffffffffffffffffff1685856040516024016104c9929190612105565b6040516020818303038152906040527f4b30261c000000000000000000000000000000000000000000000000000000007bffffffffffffffffffffffffffffffffffffffffffffffffffffffff19166020820180517bffffffffffffffffffffffffffffffffffffffffffffffffffffffff83818316178352505050506040516105539190612175565b600060405180830381855af49150503d806000811461058e576040519150601f19603f3d011682016040523d82523d6000602084013e610593565b606091505b5091509150816105d8576040517f08c379a00000000000000000000000000000000000000000000000000000000081526004016105cf906121d8565b60405180910390fd5b808060200190518101906105ec919061231e565b9250505092915050565b6000600960009054906101000a900473ffffffffffffffffffffffffffffffffffffffff16905090565b6060600080600960009054906101000a900473ffffffffffffffffffffffffffffffffffffffff1673ffffffffffffffffffffffffffffffffffffffff168585604051602401610671929190612105565b6040516020818303038152906040527f6bf510bf000000000000000000000000000000000000000000000000000000007bffffffffffffffffffffffffffffffffffffffffffffffffffffffff19166020820180517bffffffffffffffffffffffffffffffffffffffffffffffffffffffff83818316178352505050506040516106fb9190612175565b600060405180830381855af49150503d8060008114610736576040519150601f19603f3d011682016040523d82523d6000602084013e61073b565b606091505b509150915081610780576040517f08c379a0000000000000000000000000000000000000000000000000000000008152600401610777906121d8565b60405180910390fd5b80806020019051810190610794919061231e565b9250505092915050565b6000600360009054906101000a900467ffffffffffffffff1667ffffffffffffffff168267ffffffffffffffff16111561080d576040517f08c379a0000000000000000000000000000000000000000000000000000000008152600401610804906123ff565b60405180910390fd5b60008267ffffffffffffffff161161085a576040517f08c379a000000000000000000000000000000000000000000000000000000000815260040161085190612491565b60405180910390fd5b6000600460008673ffffffffffffffffffffffffffffffffffffffff1673ffffffffffffffffffffffffffffffffffffffff1681526020019081526020016000206000858152602001908152602001600020905060008160050160109054906101000a900467ffffffffffffffff16905060006001826108da91906124e0565b905060008360050160009054906101000a900467ffffffffffffffff1667ffffffffffffffff16111561097a578260050160009054906101000a900467ffffffffffffffff1694508467ffffffffffffffff168167ffffffffffffffff161115610979576040517f08c379a000000000000000000000000000000000000000000000000000000000815260040161097090612568565b60405180910390fd5b5b600080600960009054906101000a900473ffffffffffffffffffffffffffffffffffffffff1673ffffffffffffffffffffffffffffffffffffffff168560060154888760040154866040516024016109d59493929190612597565b6040516020818303038152906040527f6d48cf02000000000000000000000000000000000000000000000000000000007bffffffffffffffffffffffffffffffffffffffffffffffffffffffff19166020820180517bffffffffffffffffffffffffffffffffffffffffffffffffffffffff8381831617835250505050604051610a5f9190612175565b600060405180830381855afa9150503d8060008114610a9a576040519150601f19603f3d011682016040523d82523d6000602084013e610a9f565b606091505b509150915081610ae4576040517f08c379a0000000000000000000000000000000000000000000000000000000008152600401610adb906121d8565b60405180910390fd5b80806020019051810190610af891906125f1565b955050505050509392505050565b600080600090508273ffffffffffffffffffffffffffffffffffffffff166301ffc9a77f80ac58cd000000000000000000000000000000000000000000000000000000006040518263ffffffff1660e01b8152600401610b669190612659565b602060405180830381865afa925050508015610ba057506040513d601f19601f82011682018060405250810190610b9d9190612689565b60015b610bae576000915050610bb7565b80915050809150505b919050565b6000600254905090565b600080600a60020154600a60010154610bdf91906126b6565b905060008103610bf3576000915050610c4b565b6001600a60010154148015610c0d57506001600a60020154145b15610c1c576000915050610c4b565b6002600a60010154148015610c3657506002600a60020154145b15610c45576002915050610c4b565b60019150505b90565b6060600080600960009054906101000a900473ffffffffffffffffffffffffffffffffffffffff1673ffffffffffffffffffffffffffffffffffffffff16868686604051602401610ca1939291906126ea565b6040516020818303038152906040527fc80e712f000000000000000000000000000000000000000000000000000000007bffffffffffffffffffffffffffffffffffffffffffffffffffffffff19166020820180517bffffffffffffffffffffffffffffffffffffffffffffffffffffffff8381831617835250505050604051610d2b9190612175565b600060405180830381855af49150503d8060008114610d66576040519150601f19603f3d011682016040523d82523d6000602084013e610d6b565b606091505b509150915081610db0576040517f08c379a0000000000000000000000000000000000000000000000000000000008152600401610da7906121d8565b60405180910390fd5b80806020019051810190610dc4919061231e565b925050509392505050565b6060600080600960009054906101000a900473ffffffffffffffffffffffffffffffffffffffff1673ffffffffffffffffffffffffffffffffffffffff16868686604051602401610e2293929190612721565b6040516020818303038152906040527fcebd5145000000000000000000000000000000000000000000000000000000007bffffffffffffffffffffffffffffffffffffffffffffffffffffffff19166020820180517bffffffffffffffffffffffffffffffffffffffffffffffffffffffff8381831617835250505050604051610eac9190612175565b600060405180830381855af49150503d8060008114610ee7576040519150601f19603f3d011682016040523d82523d6000602084013e610eec565b606091505b509150915081610f31576040517f08c379a0000000000000000000000000000000000000000000000000000000008152600401610f28906121d8565b60405180910390fd5b80806020019051810190610f45919061231e565b925050509392505050565b610f58611a27565b600460008473ffffffffffffffffffffffffffffffffffffffff1673ffffffffffffffffffffffffffffffffffffffff1681526020019081526020016000206000838152602001908152602001600020604051806101200160405290816000820160009054906101000a900473ffffffffffffffffffffffffffffffffffffffff1673ffffffffffffffffffffffffffffffffffffffff1673ffffffffffffffffffffffffffffffffffffffff1681526020016001820160009054906101000a900473ffffffffffffffffffffffffffffffffffffffff1673ffffffffffffffffffffffffffffffffffffffff1673ffffffffffffffffffffffffffffffffffffffff1681526020016002820160009054906101000a900473ffffffffffffffffffffffffffffffffffffffff1673ffffffffffffffffffffffffffffffffffffffff1673ffffffffffffffffffffffffffffffffffffffff16815260200160038201548152602001600482015481526020016005820160009054906101000a900467ffffffffffffffff1667ffffffffffffffff1667ffffffffffffffff1681526020016005820160089054906101000a900467ffffffffffffffff1667ffffffffffffffff1667ffffffffffffffff1681526020016005820160109054906101000a900467ffffffffffffffff1667ffffffffffffffff1667ffffffffffffffff168152602001600682015481525050905092915050565b600d60009054906101000a900473ffffffffffffffffffffffffffffffffffffffff1673ffffffffffffffffffffffffffffffffffffffff163373ffffffffffffffffffffffffffffffffffffffff1603611210576000600a600101541461120f576040517f08c379a0000000000000000000000000000000000000000000000000000000008152600401611206906127ca565b60405180910390fd5b5b600e60009054906101000a900473ffffffffffffffffffffffffffffffffffffffff1673ffffffffffffffffffffffffffffffffffffffff163373ffffffffffffffffffffffffffffffffffffffff16036112ae576000600a60020154146112ad576040517f08c379a00000000000000000000000000000000000000000000000000000000081526004016112a4906127ca565b60405180910390fd5b5b600d60009054906101000a900473ffffffffffffffffffffffffffffffffffffffff1673ffffffffffffffffffffffffffffffffffffffff163373ffffffffffffffffffffffffffffffffffffffff1614806113575750600e60009054906101000a900473ffffffffffffffffffffffffffffffffffffffff1673ffffffffffffffffffffffffffffffffffffffff163373ffffffffffffffffffffffffffffffffffffffff16145b611396576040517f08c379a000000000000000000000000000000000000000000000000000000000815260040161138d90612836565b60405180910390fd5b801561141257600d60009054906101000a900473ffffffffffffffffffffffffffffffffffffffff1673ffffffffffffffffffffffffffffffffffffffff163373ffffffffffffffffffffffffffffffffffffffff1603611401576002600a6001018190555061140d565b6002600a600201819055505b611484565b600d60009054906101000a900473ffffffffffffffffffffffffffffffffffffffff1673ffffffffffffffffffffffffffffffffffffffff163373ffffffffffffffffffffffffffffffffffffffff1603611477576001600a60010181905550611483565b6001600a600201819055505b5b50565b6000806000905060008373ffffffffffffffffffffffffffffffffffffffff166301ffc9a77fad092b5c000000000000000000000000000000000000000000000000000000006040518263ffffffff1660e01b81526004016114e99190612659565b602060405180830381865afa92505050801561152357506040513d601f19601f820116820180604052508101906115209190612689565b60015b611532576000925050506115eb565b809250508373ffffffffffffffffffffffffffffffffffffffff166301ffc9a77f80ac58cd000000000000000000000000000000000000000000000000000000006040518263ffffffff1660e01b815260040161158f9190612659565b602060405180830381865afa9250505080156115c957506040513d601f19601f820116820180604052508101906115c69190612689565b60015b6115d8576000925050506115eb565b809150508180156115e65750805b925050505b919050565b6115f8611972565b600160009054906101000a900473ffffffffffffffffffffffffffffffffffffffff1673ffffffffffffffffffffffffffffffffffffffff163373ffffffffffffffffffffffffffffffffffffffff1614611688576040517f08c379a000000000000000000000000000000000000000000000000000000000815260040161167f906128c8565b60405180910390fd5b6000600a60010154141580156116a457506000600a6002015414155b6116e3576040517f08c379a00000000000000000000000000000000000000000000000000000000081526004016116da90612934565b60405180910390fd5b6002600a600101541480156116fd57506002600a60020154145b61173c576040517f08c379a0000000000000000000000000000000000000000000000000000000008152600401611733906129c6565b60405180910390fd5b600a60000160009054906101000a900473ffffffffffffffffffffffffffffffffffffffff16600960006101000a81548173ffffffffffffffffffffffffffffffffffffffff021916908373ffffffffffffffffffffffffffffffffffffffff160217905550600960009054906101000a900473ffffffffffffffffffffffffffffffffffffffff1673ffffffffffffffffffffffffffffffffffffffff16600160009054906101000a900473ffffffffffffffffffffffffffffffffffffffff1673ffffffffffffffffffffffffffffffffffffffff167f1ed34c9a7b236ee6031785cd9ca32de930e1ae39020c1279886b687a307e7fcb60405160405180910390a36118486119c1565b565b338073ffffffffffffffffffffffffffffffffffffffff16600160009054906101000a900473ffffffffffffffffffffffffffffffffffffffff1673ffffffffffffffffffffffffffffffffffffffff16146118d2576040517f30cd747100000000000000000000000000000000000000000000000000000000815260040160405180910390fd5b81600a60000160006101000a81548173ffffffffffffffffffffffffffffffffffffffff021916908373ffffffffffffffffffffffffffffffffffffffff1602179055506000600a600101819055506000600a600201819055505050565b60606000611940836000016119cb565b905060608190508092505050919050565b60606000611961836000016119cb565b905060608190508092505050919050565b6002600054036119b7576040517f08c379a00000000000000000000000000000000000000000000000000000000081526004016119ae90612a32565b60405180910390fd5b6002600081905550565b6001600081905550565b606081600001805480602002602001604051908101604052809291908181526020018280548015611a1b57602002820191906000526020600020905b815481526020019060010190808311611a07575b50505050509050919050565b604051806101200160405280600073ffffffffffffffffffffffffffffffffffffffff168152602001600073ffffffffffffffffffffffffffffffffffffffff168152602001600073ffffffffffffffffffffffffffffffffffffffff1681526020016000815260200160008152602001600067ffffffffffffffff168152602001600067ffffffffffffffff168152602001600067ffffffffffffffff168152602001600081525090565b6000604051905090565b600080fd5b600080fd5b600073ffffffffffffffffffffffffffffffffffffffff82169050919050565b6000611b1282611ae7565b9050919050565b611b2281611b07565b8114611b2d57600080fd5b50565b600081359050611b3f81611b19565b92915050565b600060208284031215611b5b57611b5a611add565b5b6000611b6984828501611b30565b91505092915050565b600081519050919050565b600082825260208201905092915050565b6000819050602082019050919050565b6000819050919050565b611bb181611b9e565b82525050565b6000611bc38383611ba8565b60208301905092915050565b6000602082019050919050565b6000611be782611b72565b611bf18185611b7d565b9350611bfc83611b8e565b8060005b83811015611c2d578151611c148882611bb7565b9750611c1f83611bcf565b925050600181019050611c00565b5085935050505092915050565b60006020820190508181036000830152611c548184611bdc565b905092915050565b600081519050919050565b600082825260208201905092915050565b6000819050602082019050919050565b611c9181611b07565b82525050565b6000611ca38383611c88565b60208301905092915050565b6000602082019050919050565b6000611cc782611c5c565b611cd18185611c67565b9350611cdc83611c78565b8060005b83811015611d0d578151611cf48882611c97565b9750611cff83611caf565b925050600181019050611ce0565b5085935050505092915050565b60006020820190508181036000830152611d348184611cbc565b905092915050565b611d4581611b9e565b8114611d5057600080fd5b50565b600081359050611d6281611d3c565b92915050565b60008060408385031215611d7f57611d7e611add565b5b6000611d8d85828601611b30565b9250506020611d9e85828601611d53565b9150509250929050565b600081519050919050565b600082825260208201905092915050565b60005b83811015611de2578082015181840152602081019050611dc7565b60008484015250505050565b6000601f19601f8301169050919050565b6000611e0a82611da8565b611e148185611db3565b9350611e24818560208601611dc4565b611e2d81611dee565b840191505092915050565b60006020820190508181036000830152611e528184611dff565b905092915050565b611e6381611b07565b82525050565b6000602082019050611e7e6000830184611e5a565b92915050565b600067ffffffffffffffff82169050919050565b611ea181611e84565b8114611eac57600080fd5b50565b600081359050611ebe81611e98565b92915050565b600080600060608486031215611edd57611edc611add565b5b6000611eeb86828701611b30565b9350506020611efc86828701611d53565b9250506040611f0d86828701611eaf565b9150509250925092565b611f2081611b9e565b82525050565b6000602082019050611f3b6000830184611f17565b92915050565b60008115159050919050565b611f5681611f41565b82525050565b6000602082019050611f716000830184611f4d565b92915050565b600080600060608486031215611f9057611f8f611add565b5b6000611f9e86828701611b30565b9350506020611faf86828701611d53565b9250506040611fc086828701611d53565b9150509250925092565b611fd381611e84565b82525050565b61012082016000820151611ff06000850182611c88565b5060208201516120036020850182611c88565b5060408201516120166040850182611c88565b5060608201516120296060850182611ba8565b50608082015161203c6080850182611ba8565b5060a082015161204f60a0850182611fca565b5060c082015161206260c0850182611fca565b5060e082015161207560e0850182611fca565b5061010082015161208a610100850182611ba8565b50505050565b6000610120820190506120a66000830184611fd9565b92915050565b6120b581611f41565b81146120c057600080fd5b50565b6000813590506120d2816120ac565b92915050565b6000602082840312156120ee576120ed611add565b5b60006120fc848285016120c3565b91505092915050565b600060408201905061211a6000830185611e5a565b6121276020830184611f17565b9392505050565b600081519050919050565b600081905092915050565b600061214f8261212e565b6121598185612139565b9350612169818560208601611dc4565b80840191505092915050565b60006121818284612144565b915081905092915050565b7f7472616e73616374696f6e206661696c65640000000000000000000000000000600082015250565b60006121c2601283611db3565b91506121cd8261218c565b602082019050919050565b600060208201905081810360008301526121f1816121b5565b9050919050565b600080fd5b600080fd5b7f4e487b7100000000000000000000000000000000000000000000000000000000600052604160045260246000fd5b61223a82611dee565b810181811067ffffffffffffffff8211171561225957612258612202565b5b80604052505050565b600061226c611ad3565b90506122788282612231565b919050565b600067ffffffffffffffff82111561229857612297612202565b5b6122a182611dee565b9050602081019050919050565b60006122c16122bc8461227d565b612262565b9050828152602081018484840111156122dd576122dc6121fd565b5b6122e8848285611dc4565b509392505050565b600082601f830112612305576123046121f8565b5b81516123158482602086016122ae565b91505092915050565b60006020828403121561233457612333611add565b5b600082015167ffffffffffffffff81111561235257612351611ae2565b5b61235e848285016122f0565b91505092915050565b7f696e7374616c6c6d656e7420636f756e74206d757374206d65206c657373207460008201527f68616e20746865206d6178696d756d20616c6c6f77656420696e7374616c6c6d60208201527f656e747300000000000000000000000000000000000000000000000000000000604082015250565b60006123e9604483611db3565b91506123f482612367565b606082019050919050565b60006020820190508181036000830152612418816123dc565b9050919050565b7f696e7374616c6c6d656e7420636f756e74206d7573742062652067726561746560008201527f72207468616e2031000000000000000000000000000000000000000000000000602082015250565b600061247b602883611db3565b91506124868261241f565b604082019050919050565b600060208201905081810360008301526124aa8161246e565b9050919050565b7f4e487b7100000000000000000000000000000000000000000000000000000000600052601160045260246000fd5b60006124eb82611e84565b91506124f683611e84565b9250828201905067ffffffffffffffff811115612516576125156124b1565b5b92915050565b7f4e46542066756c6c792070616964000000000000000000000000000000000000600082015250565b6000612552600e83611db3565b915061255d8261251c565b602082019050919050565b6000602082019050818103600083015261258181612545565b9050919050565b61259181611e84565b82525050565b60006080820190506125ac6000830187611f17565b6125b96020830186612588565b6125c66040830185611f17565b6125d36060830184612588565b95945050505050565b6000815190506125eb81611d3c565b92915050565b60006020828403121561260757612606611add565b5b6000612615848285016125dc565b91505092915050565b60007fffffffff0000000000000000000000000000000000000000000000000000000082169050919050565b6126538161261e565b82525050565b600060208201905061266e600083018461264a565b92915050565b600081519050612683816120ac565b92915050565b60006020828403121561269f5761269e611add565b5b60006126ad84828501612674565b91505092915050565b60006126c182611b9e565b91506126cc83611b9e565b92508282019050808211156126e4576126e36124b1565b5b92915050565b60006060820190506126ff6000830186611e5a565b61270c6020830185611f17565b6127196040830184611f17565b949350505050565b60006060820190506127366000830186611e5a565b6127436020830185611f17565b6127506040830184612588565b949350505050565b7f596f75206861766520616c726561647920766f746564206f6e2074686973207060008201527f726f706f73616c00000000000000000000000000000000000000000000000000602082015250565b60006127b4602783611db3565b91506127bf82612758565b604082019050919050565b600060208201905081810360008301526127e3816127a7565b9050919050565b7f4e6f7420617574686f72697a656420746f20766f746500000000000000000000600082015250565b6000612820601683611db3565b915061282b826127ea565b602082019050919050565b6000602082019050818103600083015261284f81612813565b9050919050565b7f6d61726b6574706c6163652063616e206f6e6c7920626520757067726164656460008201527f20627920746865206f776e657200000000000000000000000000000000000000602082015250565b60006128b2602d83611db3565b91506128bd82612856565b604082019050919050565b600060208201905081810360008301526128e1816128a5565b9050919050565b7f566f746572732068617665206e6f7420636f6d706c6574656420766f74696e67600082015250565b600061291e602083611db3565b9150612929826128e8565b602082019050919050565b6000602082019050818103600083015261294d81612911565b9050919050565b7f566f746572732068617665206e6f7420616772656564206f6e2074686520707260008201527f6f706f73616c0000000000000000000000000000000000000000000000000000602082015250565b60006129b0602683611db3565b91506129bb82612954565b604082019050919050565b600060208201905081810360008301526129df816129a3565b9050919050565b7f5265656e7472616e637947756172643a207265656e7472616e742063616c6c00600082015250565b6000612a1c601f83611db3565b9150612a27826129e6565b602082019050919050565b60006020820190508181036000830152612a4b81612a0f565b905091905056fea26469706673582212201ee1f19d9018b03338022d5bc60803b030d86027c03c9f3348538a6b3483ef9864736f6c63430008110033",
  "linkReferences": {},
  "deployedLinkReferences": {}
}